:020000021000EC
:10B0000000800020BDC30100FDC30100FFC301009B
:10B010000000000000000000000000000000000030
:10B0200000000000000000000000000001C401005A
:10B03000000000000000000003C4010005C401007E
:10B0400007C4010007C4010007C4010007C40100D0
:10B0500007C4010000000000F9BB010007C40100A3
:10B06000B9BE01006DBF010021C0010007C401008D
:10B0700007C4010007C4010007C4010007C40100A0
:10B0800007C40100C5B4010007C4010007C40100E2
:10B09000A1B5010007C401002DC3010007C40100D0
:10B0A00007C4010007C40100000000000000000008
:10B0B0000000000000000000000000000000000090
:10B0C00010B5064C2378002B07D1054B002B02D07E
:10B0D000044800E000BF0123237010BD7C2800203D
:10B0E000000000006CC4010008B5084B002B03D021
:10B0F0000748084900E000BF07480368002B00D15B
:10B1000008BD064B002BFBD09847F9E70000000074
:10B110006CC4010080280020782800200000000076
:10B12000164B002B00D1144B9D46402292029A1AD6
:10B13000924600218B460F461348144A121A00F01B
:10B1400067F80F4B002B00D098470E4B002B00D018
:10B1500098470020002104000D000D48002802D06F
:10B160000C4800E000BF00F02DF82000290000F09E
:10B170005BF800F011F8C0460000080000800020D5
:10B1800000000000000000007C280020D02B0020E0
:10B190000000000000000000084B10B5041C002B4C
:10B1A00002D0002100E000BF054B1868836A002B25
:10B1B00000D09847201C00F033F8C0460000000083
:10B1C00044C401000E4B70B500251E1C0D4CE41A42
:10B1D000A410A54204D0AB00F35898470135F8E716
:10B1E00001F022F9084B00251E1C084CE41AA4109B
:10B1F000A54204D0AB00F35898470135F8E770BD7D
:10B20000702800207028002070280020742800205A
:10B21000031C8218934202D019700133FAE7704779
:10B22000FEE7C04648DF704708B500200521084A00
:10B23000002300F0D9FB002801D000F0F7F800F05F
:10B240004DF8FFF7EFFF0028FBD000F0EFF8F8E72C
:10B250009828002072DF704773DF704774DF7047F3
:10B260007CDF7047A02210B5174BD205D158802340
:10B270005B041C1CA1208C430B401449C0001450DB
:10B280005350FFF7EBFF00281BD111480122037C2C
:10B29000052B01D80133DAB202740E4A1B21137850
:10B2A0000133DBB2FFF7D6FF002807D10A48FFF7CA
:10B2B000D3FF002801D000F0B9F810BD00F0B6F8B7
:10B2C000F4E700F0B3F8E0E7040500000C05000027
:10B2D000AC2B00208C2B0020C82A0020A023802229
:10B2E000A321F0B5DB055204C9005A5087B01039CC
:10B2F0005A5068464149042201F086F868464049A0
:10B300004822002300F0D4FF002800D072E001ADF5
:10B31000002001212A1C01F021F8002867D13948BA
:10B3200001F034F800285FD1281C01F039F800281A
:10B3300001D000F07BF8344F34491B22381C01F057
:10B3400063F8334E301C01F068F80823314C0130AB
:10B35000C2B22270311C013AA01C637001F054F893
:10B360002378381C0133DBB21B21221CFFF772FF4C
:10B37000002836D100232278281C013A92B2311CD1
:10B380002B70FFF76DFF002801D000F04FF8224C22
:10B3900000211822201CFFF73BFF0223A02223706C
:10B3A000002322821D4801211D4A636023726382AB
:10B3B00000F08CFB002811D1201CFFF74DFF002866
:10B3C00001D000F033F817481749002200F098FB2D
:10B3D000002801D000F02AF807B0F0BD00F026F8F0
:10B3E000EAE700F023F8C5E700F020F89CE700F05A
:10B3F0001DF894E700F01AF889E7C04648C4010038
:10B40000602A0020E81F0020AC2B002050C401005F
:10B41000602800208C2B0020C82A00204CC401008A
:10B4200065B20100A82A002003800200002300B5B5
:10B4300085B001AA9060002103481380536000E0AA
:10B4400000BF05B000BDC046014000008021802340
:10B45000184A8902D1508022D221174B520289000A
:10B460005A5040395A5001222F205A600138C046A4
:10B47000C046C046C046C046C046C046C046C0469C
:10B48000C046C046C046F1D19A6000230B4A2F2027
:10B4900013600138C046C046C046C046C046C046DC
:10B4A000C046C046C046C046C046C046F1D1044A68
:10B4B0001370704700E100E000100140E02A002016
:10B4C000002B0020A021F0B5002347462B4A49005D
:10B4D00080B453500431535004315350043153500D
:10B4E0004C39535004315350254B1B68002B35D039
:10B4F0002449002652582449244F0C68141B00226A
:10B500002402240A904602E0002D18D02B1C1A6851
:10B51000A24214D8A41AB6181A7CDD69002AF3D006
:10B52000424699691A745A693B68002B19D0101C5D
:10B5300098470028E8D0FFF779FF002DE6D1144B9B
:10B5400014491A780B789A420ED0134A9B009E50E9
:10B5500080218023114A49035B00D15004BC9046EE
:10B56000F0BD081C9047CFE70132D3B2022B01D0C7
:10B570000B70EAE700230B70E7E7C04600100140BC
:10B58000E42A002004050000E02A0020E82A002028
:10B59000F42A0020F52A0020F82A002000E100E02B
:10B5A000F0B55F4656464D464446F0B4B44BB54AF6
:10B5B0001B68B54989B0019309781378994200D185
:10B5C000B1E10133DBB2022B00D100231370AF4A8B
:10B5D0009B009B58AA4A9946019B4B441B021B0A9D
:10B5E000136001230493AA4B00241B689B46A94BBC
:10B5F000D8461B781A1C0293A74B944607931B68E6
:10B6000003939F4B1B680693A44B1B7805935B46E3
:10B610006646013EF2B29446FF2A4FD06246D00001
:10B62000039A9246504401784578A942F0D04A00E6
:10B630005218877801314668C9B27F1AB2467E1E19
:10B64000B741D2007F42524439401778022F0AD0C6
:10B65000032FEAD1002BE8D01C74DB69002BFBD14F
:10B6600045789846E1E75668002B25D09E421AD0CF
:10B670001F1C00E0171CFA69002AD6D09642F9D1A7
:10B68000321C3D1CBE4200D1EBE01768D269EA6172
:10B69000002A06D013689A465744176045784346F7
:10B6A000C3E74578C1E7DE691A1C002E00D1DDE052
:10B6B000B046331C151CE8E70023B6E76946774A15
:10B6C000097D181C11706E4A06990393116041465A
:10B6D0006F4A1160049A002A00D028E15B461B1AC9
:10B6E0005A1E93410025DBB20493079B00271B6879
:10B6F000039E0693624B1B689C46654B1B689A46EB
:10B70000664B1B780593664B019301239846029B79
:10B71000013BDBB20293FF2B00D18FE0069ADB00E6
:10B7200093469B44002D27D06968AB68281CED69BF
:10B730006246019C8A1A1202120AA24250D8D318F9
:10B7400042460360476087600274C761002E56D08E
:10B750003168341C994204D35FE01168994263D286
:10B76000141CE2695B1A002AF7D10360331CC26122
:10B77000E0611E1C002DD7D15B465A461B785278DB
:10B780009A42C4D0594649685A0089465946D21847
:10B790000133DBB20B708978D2004A4499424AD017
:10B7A00011785068331C0129E3D1037C994649463E
:10B7B000331C0029DDD191684160D368836014692E
:10B7C000C46052698261059A002AB1D04A460021BC
:10B7D00042606246019C8A1A1202120AA242AED943
:10B7E0006246511A0902090A99420CD242465B1A72
:10B7F0000360476087600274C761002EA8D1031CF4
:10B8000082461E1CB6E743460760476087600374A4
:10B81000C761002EF3D000233168CB1A3360031CBC
:10B82000C66182461E1CA5E7C91A11600360C26189
:10B83000331CE0619DE75B461D70B1E75246144B37
:10B840001A60039BB3422FD1049B002B2CD1002301
:10B85000124A137009B03CBC90469946A246AB46CA
:10B86000F0BDDE693A1C002E00D021E701250D4B0A
:10B870009D600023069601369846151C059604E740
:10B88000E02A0020F42A0020F52A0020F82A0020CF
:10B89000E42A0020EC2A0020F02A0020F62A0020CA
:10B8A000FEFF7F0000100140002E63D0484B494945
:10B8B0003568CC58484B494E1B683078E21A120262
:10B8C000120A03329046002861D04246AA4200D2B2
:10B8D0002A1CA820D21812023E49130AC0003C4D6F
:10B8E0000B504A591B1B121B1202120A1B02033275
:10B8F0001B0A9A42ABD94B590B502F200138C04636
:10B90000C046C046C046C046C046C046C046C04607
:10B91000C046C046C046F1D180218023304A89020A
:10B920005B00D15093E70023994604935BE6002522
:10B93000002100244846464613E01A6882421CD87B
:10B94000DE68801A89181C60DF69002E07D0DD616F
:10B950001D1C019A9E608A181202120A5A603B1C32
:10B960003E1C002BE9D11F4B1E60002303930133C3
:10B970000493BAE6FFF76AFD69E781461949039324
:10B980000E604946521A1A6001230493ADE68020E6
:10B99000D1274002BF00C851403FC851C022802774
:10B9A0000F48BF0252008750076001272F200F6009
:10B9B0000138C046C046C046C046C046C046C04624
:10B9C000C046C046C046C046C046F1D137707CE78D
:10B9D0000405000000100140E02A0020002B002098
:10B9E00000E100E0E42A0020F8B54F464646C0B426
:10B9F0000326351C80460F1C141C99461540072051
:10BA0000002D03D00CBC90469946F8BD002A44D0C6
:10BA1000FFF71CFD4A46224B80201A60221C214B56
:10BA200018321E70204B62601C607B00DB19DB004B
:10BA3000D218E260D318C022636125706570A770C8
:10BA400025726572A77225746574A774C524FF21D9
:10BA5000164B40031D60164B52001D70154BA40081
:10BA60001D70154B98501A598A433F390A431A5191
:10BA7000A122186040461149D2008850C42080009D
:10BA80001C580F4A2240C024240222431A500D4B56
:10BA90000020CA580C4B1A60B4E7034B1A60B1E798
:10BAA000E82A0020EC2A0020F02A0020E42A0020C6
:10BAB000F42A0020F52A002000E100E000100140F7
:10BAC000FF00FFFF04050000E02A002010B50B4B2B
:10BAD0001B68002B0BD0002A07D0002805D0036874
:10BAE00008201C7C002C04D010BD0720FCE7082097
:10BAF000FAE759745A610020F6E7C046F02A0020A0
:10BB0000F0B5474680B4374B1C68002C08D000289D
:10BB100006D00723042905D8181C04BC9046F0BDA4
:10BB20000823F9E74369002BFAD00025437CA84697
:10BB3000012B2FD0EFF30583DB05DB0D1025002B48
:10BB40002CD164196378A5785E1CF6B2AD1B6F1E0C
:10BB5000BD416D422E402578B5421DD05D00EB18E9
:10BB60006568DB00ED180423002DD5D0033B2B7056
:10BB700068601D4B1D48C358E960AB604346802197
:10BB80002B6180236A611A4A5B0049036670D150B9
:10BB90000023C1E78846CDE70423BDE7103BDEB2B2
:10BBA00075B2002D13DBAD08114EC035AD00AD5997
:10BBB00003263340DB00DD402B069B0FDBB2002564
:10BBC000012BBED00835032BBBD00835B9E70F23B6
:10BBD000084D3340AC46083B9B089B0063445D68BE
:10BBE0000323E6E7F02A00200405000000100140CE
:10BBF00000E100E018ED00E0F0B544465F4656462F
:10BC00004D46F0B4A24A87B013680024012B00D13E
:10BC1000B8E0A04B1A68012A00D1C1E09E4B1A6817
:10BC2000012A00D1CCE09D4B1A68012A00D1D7E04F
:10BC300000229B4B02921A68012A00D1E2E02307FE
:10BC40000BD0E30700D5F5E0A30700D501E16307BA
:10BC500000D50CE1230700D5E0E0002C06DB07B09F
:10BC60003CBC90469946A246AB46F0BD01235B42E0
:10BC7000984600238B4E0493371CC03399464E37A9
:10BC800000230393331C341C012546469846483450
:10BC900021784BB201332FD0C9B24B46081C9843D0
:10BCA000331CC3401D4227D08B09019343464246B3
:10BCB0001B1828331B785BB29B00D3589C46002B83
:10BCC00038D02B1C83409A46019B032B38D0A023ED
:10BCD000DB059B46E02382005A44DB00D3580592E3
:10BCE000C022920213401B0C191C53469346029A21
:10BCF0001A4214D1032928D00134BC42C8D1039B75
:10BD00004646002BABD0A223A022DB00D205D3589D
:10BD1000029A9A42A3D0049A02939046B0E702296D
:10BD2000EAD1019B032B16D06346002BE4D0019986
:10BD3000E047E1E7019B032BDED12B1C83409A46B1
:10BD40005246049B13430493C1E7019B032BEBD1A1
:10BD500080239B029B46E0230599DB00CB589A4643
:10BD60005246514B1340E022D2008B508B585A461A
:10BD70001A43131CE022D2008B50039B0133DBB229
:10BD80000393D1E7C1214948890041580B4200D1B2
:10BD90003FE7404B14601A680134012A00D03DE7A8
:10BDA000C12242499200895802220A4200D135E755
:10BDB00000211960384B14431A68012A00D032E779
:10BDC000C1223A499200895804220A4200D12AE746
:10BDD00000211960314B14431A68012A00D027E76B
:10BDE000C12232499200895808220A4200D11FE735
:10BDF0000021144300221960294B02921A68012A7B
:10BE000000D01CE700221A6080231B061C43A022DE
:10BE1000A223D205DB00D358029310E7234A244B18
:10BE2000204ED058D158C0048903C00E890FF36842
:10BE3000984712E7A2231D4ADB00D058D158194E6B
:10BE4000C00489033368C00E890F9847A30700D444
:10BE5000FDE6184B154A134ED058D158C00489033B
:10BE60007368C00E890F9847630700D4F2E6A323D6
:10BE70000E4ADB00D058D1580A4EC0048903B3687B
:10BE8000C00E890F9847230700D4E6E6C6E7C046F0
:10BE90000061004004610040086100400C61004006
:10BEA0007C610040042B0020FFFFFCFF006000408D
:10BEB0001C0500001405000008B5264B1A68002A6E
:10BEC00005D0C122244992008A58D20327D4234B9B
:10BED0001A68002A05D0C1221F4992008A5892038D
:10BEE00026D41F4B1A68002A05D0C1221A49920095
:10BEF0008A58520325D41B4B1A68002A05D0C12248
:10BF0000154992008A58120300D408BD0022A620C9
:10BF10001A60154B400059681B689847F5E70022E6
:10BF2000A0201A60104B400059681B689847CEE764
:10BF30000022A2201A600C4B400059681B689847E9
:10BF4000CFE70022A4201A60074B400059681B6805
:10BF50009847D0E740810040008000404481004085
:10BF6000488100404C810040542B002008B5264BEE
:10BF70001A68002A05D0C122244992008A58D203A7
:10BF800027D4234B1A68002A05D0C1221F499200EA
:10BF90008A58920326D41F4B1A68002A05D0C12262
:10BFA0001A4992008A58520325D41B4B1A68002A5A
:10BFB00005D0C122154992008A58120300D408BD49
:10BFC0000022A6201A60154B40001969DB689847CB
:10BFD000F5E70022A0201A60104B40001969DB68C9
:10BFE0009847CEE70022A2201A600C4B4000196946
:10BFF000DB689847CFE70022A4201A60074B400077
:10C000001969DB689847D0E74091004000900040F4
:10C0100044910040489100404C910040542B002036
:10C0200008B5264B1A68002A05D0C122244992007F
:10C030008A58D20327D4234B1A68002A05D0C1227C
:10C040001F4992008A58920326D41F4B1A68002A6F
:10C0500005D0C1221A4992008A58520325D41B4B9D
:10C060001A68002A05D0C122154992008A58120385
:10C0700000D408BD0022A6201A60154B4000D969E3
:10C080009B699847F5E70022A0201A60104B4000FA
:10C09000D9699B699847CEE70022A2201A600C4B11
:10C0A0004000D9699B699847CFE70022A4201A6015
:10C0B000074B4000D9699B699847D0E740A10040F1
:10C0C00000A0004044A1004048A100404CA1004015
:10C0D000542B0020304B1B78012B00D070472F4B86
:10C0E0001B681B07FAD1F0222D4B1B68134027D188
:10C0F0002C4B1B68134229D0284B1B681B07EDD122
:10C10000F022274B1B681340402B32D0244B1A6877
:10C11000F0231340A02B01D0D02BDFD1214B1A6884
:10C12000F0231A42DAD1204A1368012B04D01F4BA6
:10C1300013601368012BFCD1C0221D4B1A60CDE7A0
:10C14000102B0FD1174B1B681342D9D1194A1A4B28
:10C150001A608022194B12021A600F4B1B78012BB8
:10C16000CAD0BBE7302BCBD10E4B1B681342C7D1D3
:10C17000ECE70C4B1B681342C8D1C123802201217C
:10C18000DB00D205D150044B1B78012BA6D1034B09
:10C190001B681B07BAD0A1E7E00F00F0E40F00F026
:10C1A000E80F00F0EC0F00F000EC06407593000083
:10C1B00014EC0640DFFF07C004050040186C004087
:10C1C00052DF704710DF704760DF704761DF7047F4
:10C1D00008B500E000BF08BDF0B557464E464546DD
:10C1E000E0B42F4B2F4E1D6899466B425D412E4B9C
:10C1F000B2461C68984663425C412C4F82B0EDB257
:10C20000E4B2002D08D0002C23D002B01CBC904614
:10C210009946A246F0BD012401A8FFF7D1FF0528E9
:10C220002DD0002826D0FFF701F9002CF3D16A4663
:10C230001C4B01A91B8893801C4B1C68201CFFF71A
:10C24000C5FF0528E7D000280ED0FFF7EFF800243F
:10C25000D7E73C68338801A9201C0B80FFF7B6FFA5
:10C260000528D2D00028F0D14346201C1B689847EF
:10C270000024C6E74B4601981B689847D5E7002C79
:10C28000C3D153466A461B8801A99380074B0125F9
:10C290001C68201CFFF79AFF0528D4D1B5E7C046DB
:10C2A000802B00207A2B0020842B00207C2B002068
:10C2B00038B5041C0720002901D08D0700D038BDF7
:10C2C000124801601249201C0A80124A1249136068
:10C2D000FFF778FF0028F2D10122104B1A70C52217
:10C2E0000F4B92009A58520207D50E4A5068002808
:10C2F00005D18022D2031A60E1E70B48DFE78021F5
:10C300001368C9030B4313600020D8E77C2B00207F
:10C310007A2B0020882B0020D1C10100782B00202F
:10C3200000E100E0C82B00200220000008B5094B06
:10C330001B68002B06D09847002800D108BDFFF7E6
:10C3400075F8FBE7044B1B78002BF7D0FFF744FF91
:10C35000F4E7C046882B0020782B002070B5141C11
:10C36000051C0E1C101C00211422FEF751FF002397
:10C3700001222361237B22809343237326726572FB
:10C38000002D01D00123A372002070BD0020034BBB
:10C3900082B00193019B02B07047C0460028002084
:10C3A00000B5054B83B00193019B69460093FFF7ED
:10C3B0000BFF03B000BDC0460028002003210A483F
:10C3C00002680A430260094802680A430260084999
:10C3D000084A094B9B1A03DD043BC858D050FBDCCC
:10C3E000FFF778FEFEF79CFE240500405405004050
:10C3F00078C40100002800207C280020FEE7FEE72A
:10C40000FEE7FEE7FEE7FEE7002310B5934203D008
:10C41000CC5CC4540133F9E710BD0023C25C013386
:10C42000002AFBD1581E7047F8B5C046F8BC08BCBE
:10C430009E467047F8B5C046F8BC08BC9E4670479B
:10C440004300000000280020000F0F00A82A002051
:10C4500002010417FF590013020210010302010038
:10C4600001000000000000000000C2000000000009
:08C47000B0ECFF7F01000000A9
:10C4780000000000000000000000000000000000B4
:10C4880000000000000000000000000000000000A4
:10C4980040C401000000000000000000000000008F
:10C4A8000000000000000000000000000000000084
:10C4B8000000000000000000000000000000000074
:10C4C8000000000000000000000000000000000064
:10C4D800626C655F637562655F70726F746F000090
:0CC4E800E9B00100C1B00100000000003C
:040000031000C3BD69
:00000001FF
