:020000021000EC
:10800000008000200D900100559001005790010064
:108010000000000000000000000000000000000060
:108020000000000000000000000000005990010066
:1080300000000000000000005B9001005D90010066
:108040005F9001005F9001005F9001005F90010070
:108050005F90010000000000AD8B01005F90010007
:108060005F9001005F9001005F9001005F90010050
:108070005F9001005F9001005F9001005F90010040
:108080005F900100718401005F9001005F9001002A
:10809000518501005F900100D98F01005F900100C0
:1080A0005F9001005F9001000000000000000000F0
:1080B00000000000000000000000000000000000C0
:1080C000164B002B00D1144B9D46402292029A1A67
:1080D000924600218B460F461348144A121A00F0AC
:1080E00067F80F4B002B00D098470E4B002B00D0A9
:1080F00098470020002104000D000D48002802D000
:108100000C4800E000BF00F02DF82000290000F02E
:10811000B5F800F011F8C04600000800008000200B
:108120000000000000000000702000207C230020E0
:108130000000000000000000084B10B5041C002BDC
:1081400002D0002100E000BF054B1868836A002BB5
:1081500000D09847201C00F033F8C0460000000013
:108160009C9001000E4B70B500251E1C0D4CE41AAE
:10817000A410A54204D0AB00F35898470135F8E7A6
:1081800000F07EFF084B00251E1C084CE41AA410CA
:10819000A54204D0AB00F35898470135F8E770BD0D
:1081A000702000207020002070200020702000200F
:1081B000031C8218934202D019700133FAE770470A
:1081C000FEE7C04648DF704772DF704773DF7047D5
:1081D00074DF70477CDF704760DF704708B5A0230D
:1081E00080211C4ADB059A584904D20121D4A122DE
:1081F000D2009950FFF7ECFF002820D116481B2130
:10820000037C023B5A4253410222D31A134A03749D
:1082100013780133DBB2FFF7D7FF002814D11048E1
:10822000FFF7D4FF002803D00021002200F0D8F887
:1082300008BD0C4A9950FFF7CBFF0028DED0002183
:10824000002200F0CDF8D9E70021002200F0C8F8A4
:10825000E5E7C0460405000060230020402300201D
:10826000802200200C05000008B5031C0A1C0248EF
:10827000191C00F0B5F808BDEFBEADDE70B50020EA
:1082800082B005214B4A002300F086FB002803D072
:108290000021002200F0A4F8A0238022A321DB0506
:1082A0005204C9005A5010395A5068460021082219
:1082B000FFF77EFF112040494822002300F066FEB0
:1082C000002803D00021002200F08AF86B4601222A
:1082D0001B78684693436A461370FFF77DFF0028BA
:1082E00003D00021002200F07BF8344E34491B22D9
:1082F000301C00F0B5FE334D281C00F0BAFE0823F8
:10830000314C421CD2B22270291C013AA01C63706D
:1083100000F0A6FE2378301C0133DBB21B21221CA7
:10832000FFF752FF002803D00021002200F058F888
:108330006A460023137022786846013A92B2291CDB
:10834000FFF748FF002803D00021002200F048F882
:108350001E4C00211822201CFFF72AFF0223A02216
:108360002370002322821A4801211A4A6360237273
:10837000638200F083FB002803D00021002200F07C
:108380002FF8201CFFF722FF002803D00021002235
:1083900000F026F810481149002200F089FB00285F
:1083A00003D1FFF70FFF0028FBD00021002200F0CF
:1083B00017F8F6E7B8200020702000206023002086
:1083C000A490010060200020402300208022002093
:1083D000A0900100DD8101009822002003800200AE
:1083E000BFF34F8F024A034BDA60BFF34F8FFEE7B4
:1083F0000400FA0500ED00E080218023184A89027C
:10840000D1508022D221174B520289005A50403954
:108410005A5001222F205A600138C046C046C0463B
:10842000C046C046C046C046C046C046C046C0461C
:10843000C046F1D19A6000230B4A2F201360013807
:10844000C046C046C046C046C046C046C046C046FC
:10845000C046C046C046C046F1D1044A13707047BA
:1084600000E100E000100140B8220020D8220020E6
:10847000A021F0B5002347462C4A490080B4535050
:108480000431535004315350043153504C3953503C
:1084900004315350264B1B68002B37D0254900264A
:1084A00052582549254F0C68141B00222402240A27
:1084B000904602E0002D1AD02B1C1A68A24216D852
:1084C000A41AB6181A7CDD69002AF3D042469969CD
:1084D0001A745A693B68002B1BD0101C984700285F
:1084E000E8D000210022FFF77BFF002DE4D1144BE0
:1084F00014491A780B789A420ED0134A9B009E506A
:1085000080218023114A49035B00D15004BC90466E
:10851000F0BD081C9047CDE70132D3B2022B01D049
:108520000B70EAE700230B70E7E7C046001001403C
:10853000BC22002004050000B8220020C022002038
:10854000CC220020CD220020D022002000E100E03B
:10855000F0B55F4656464D464446F0B4B44BB54A76
:108560001B68B54989B0019309781378994200D105
:10857000B1E10133DBB2022B00D100231370AF4A0B
:108580009B009B58AA4A9946019B4B441B021B0A1D
:10859000136001230493AA4B00241B689B46A94B3C
:1085A000D8461B781A1C0293A74B944607931B6866
:1085B00003939F4B1B680693A44B1B7805935B4664
:1085C0006646013EF2B29446FF2A4FD06246D00082
:1085D000039A9246504401784578A942F0D04A0067
:1085E0005218877801314668C9B27F1AB2467E1E9A
:1085F000B741D2007F42524439401778022F0AD047
:10860000032FEAD1002BE8D01C74DB69002BFBD1CF
:1086100045789846E1E75668002B25D09E421AD04F
:108620001F1C00E0171CFA69002AD6D09642F9D127
:10863000321C3D1CBE4200D1EBE01768D269EA61F2
:10864000002A06D013689A46574417604578434677
:10865000C3E74578C1E7DE691A1C002E00D1DDE0D2
:10866000B046331C151CE8E70023B6E76946774A95
:10867000097D181C11706E4A0699039311604146DA
:108680006F4A1160049A002A00D028E15B461B1A49
:108690005A1E93410025DBB20493079B00271B68F9
:1086A000039E0693624B1B689C46654B1B689A466B
:1086B000664B1B780593664B019301239846029BFA
:1086C000013BDBB20293FF2B00D18FE0069ADB0067
:1086D00093469B44002D27D06968AB68281CED6940
:1086E0006246019C8A1A1202120AA24250D8D3187A
:1086F00042460360476087600274C761002E56D00F
:108700003168341C994204D35FE01168994263D206
:10871000141CE2695B1A002AF7D10360331CC261A2
:10872000E0611E1C002DD7D15B465A461B7852785B
:108730009A42C4D0594649685A0089465946D218C7
:108740000133DBB20B708978D2004A4499424AD097
:1087500011785068331C0129E3D1037C99464946BE
:10876000331C0029DDD191684160D36883601469AE
:10877000C46052698261059A002AB1D04A4600213C
:1087800042606246019C8A1A1202120AA242AED9C3
:108790006246511A0902090A99420CD242465B1AF2
:1087A0000360476087600274C761002EA8D1031C74
:1087B00082461E1CB6E74346076047608760037425
:1087C000C761002EF3D000233168CB1A3360031C3D
:1087D000C66182461E1CA5E7C91A11600360C2610A
:1087E000331CE0619DE75B461D70B1E75246144BB8
:1087F0001A60039BB3422FD1049B002B2CD1002382
:10880000124A137009B03CBC90469946A246AB464A
:10881000F0BDDE693A1C002E00D021E701250D4B8A
:108820009D600023069601369846151C059604E7C0
:10883000B8220020CC220020CD220020D02200200F
:10884000BC220020C4220020C8220020CE2200200A
:10885000FEFF7F0000100140002E63D0484B4949C5
:108860003568CC58484B494E1B683078E21A1202E2
:10887000120A03329046002861D04246AA4200D232
:108880002A1CA820D21812023E49130AC0003C4DEF
:108890000B504A591B1B121B1202120A1B020332F5
:1088A0001B0A9A42ABD94B590B502F200138C046B6
:1088B000C046C046C046C046C046C046C046C04688
:1088C000C046C046C046F1D180218023304A89028B
:1088D0005B00D15093E70023994604935BE60025A3
:1088E000002100244846464613E01A6882421CD8FC
:1088F000DE68801A89181C60DF69002E07D0DD61F0
:108900001D1C019A9E608A181202120A5A603B1CB2
:108910003E1C002BE9D11F4B1E6000230393013343
:108920000493BAE6FFF768FD69E7814619490393A6
:108930000E604946521A1A6001230493ADE6802066
:10894000D1274002BF00C851403FC851C0228027F4
:108950000F48BF0252008750076001272F200F6089
:108960000138C046C046C046C046C046C046C046A4
:10897000C046C046C046C046C046F1D137707CE70D
:108980000405000000100140B8220020D822002079
:1089900000E100E0BC220020F8B54F464646C0B4D6
:1089A0000326351C80460F1C141C994615400720D1
:1089B000002D03D00CBC90469946F8BD002A44D047
:1089C000FFF71AFD4A46224B80201A60221C214BD9
:1089D00018321E70204B62601C607B00DB19DB00CC
:1089E000D218E260D318C022636125706570A77049
:1089F00025726572A77225746574A774C524FF215A
:108A0000164B40031D60164B52001D70154BA40001
:108A10001D70154B98501A598A433F390A431A5111
:108A2000A122186040461149D2008850C42080001D
:108A30001C580F4A2240C024240222431A500D4BD6
:108A40000020CA580C4B1A60B4E7034B1A60B1E718
:108A5000C0220020C4220020C8220020BC22002006
:108A6000CC220020CD22002000E100E000100140D7
:108A7000FF00FFFF04050000B822002010B50B4BDB
:108A80001B68002B0BD0002A07D0002805D00368F4
:108A900008201C7C002C04D010BD0720FCE7082017
:108AA000FAE759745A610020F6E7C046C822002050
:108AB000F0B5474680B4374B1C68002C08D000281E
:108AC00006D00723042905D8181C04BC9046F0BD25
:108AD0000823F9E74369002BFAD00025437CA84618
:108AE000012B2ED02C4B10255B68DB05DB0D2CD128
:108AF00064196378A5785E1CF6B2AD1B6F1EBD418C
:108B00006D422E402578B5421DD05D00EB1865689A
:108B1000DB00ED180423002DD6D0033B2B706860DA
:108B20001E4B1F48C358E960AB60434680212B6150
:108B300080236A611B4A5B0049036670D1500023A1
:108B4000C2E78846CEE70423BEE7103BDEB275B22B
:108B5000002D13DBAD08134EC035AD00AD59032613
:108B60003340DB00DD402B069B0FDBB20025012BE1
:108B7000BED00835032BBBD00835B9E70F230A4D0B
:108B80003340AC46083B9B089B0063445D6803236D
:108B9000E6E7C046C822002000ED00E00405000022
:108BA0000010014000E100E018ED00E0F0B544469F
:108BB0005F4656464D46F0B4844A83B0136800249D
:108BC000012B65D0824B1A68012A6DD0814B1A683F
:108BD000012A00D178E0804B1A68012A00D183E095
:108BE0007E4B00261A68012A00D18EE023070BD0A5
:108BF000E30700D593E0A30700D5BBE0630700D5EA
:108C00009DE0230700D5A9E0002C06DB03B03CBCA7
:108C100090469946A246AB46F0BDC0239846C02375
:108C20009B0200246E4D994605E0032B00D1B0E075
:108C30000134062CEAD0231C4833E95C4BB20133E3
:108C4000F6D0C9B24346081C98432B1828331B782A
:108C50005BB29B00EA58002AEAD0A027FF05BC4679
:108C60008B09019383009C44E0276346FF00DB5996
:108C70004F463B40012787401B0C3E42D5D0022B7C
:108C8000D6D1019B032B00D18BE001999047CFE710
:108C9000C1215448890041580B4293D04C4B146079
:108CA0001A680134012A91D1C1224E499200895893
:108CB00002220A4200D189E700211960454B144382
:108CC0001A68012A00D086E7C122464992008958D5
:108CD00004220A4200D17EE7002119603E4B144372
:108CE0001A68012A00D07BE7C1223E4992008958C8
:108CF00008220A4200D173E700211960374B144360
:108D00001A680026012A00D070E71E6080231B0627
:108D10001C43A022A223D205DB00D65866E7A2237B
:108D2000304ADB00D058D1582D4DC00489032B6840
:108D3000C00E890F9847A30700D45FE71AE0A3236A
:108D4000284ADB00D058D158254DC0048903AB68B0
:108D5000C00E890F9847230700D455E7214A224BBC
:108D60001F4DD058D158C0048903C00E890FEB683D
:108D7000984749E71D4B1B4A194DD058D158C0049C
:108D800089036B68C00E890F9847630700D438E7E2
:108D9000D5E7019B032B00D077E780239B029A46FF
:108DA00002E0C0239B029A46E0216346C9005B585B
:108DB0009B465F460E4B3B4067467B507B58574671
:108DC0001F433B1C67467B505FE7C0460061004085
:108DD00004610040086100400C6100407C6100407B
:108DE000DC220020006000401C050000140500008B
:108DF000FFFFFCFF1F4B1B78012B00D070471E4B61
:108E00001B681B07FAD1F0221C4B1B68134018D1BA
:108E10001B4B1B6813421AD0174B1B681B07EDD165
:108E2000F022164B1B681340402BE7D1144B1B68F4
:108E30001342E3D1C12380220121DB00D205D150AE
:108E4000DCE7102B0FD10E4B1B681342E8D10D4A03
:108E50000D4B1A6080220D4B12021A60054B1B78D5
:108E6000012BD9D0CAE7302BDAD1054B1B6813424E
:108E7000D6D1ECE7E00F00F0E40F00F0E80F00F0CF
:108E8000EC0F00F0DFFF07C004050040186C004045
:108E90002EDF704751DF704710DF704761DF70478A
:108EA00008B5081C111CFFF7DFF908BDF0B55746DF
:108EB0004E464546E0B4314B314E1D6899466B42F3
:108EC0005D41304BB2461C68984663425C412E4F70
:108ED00082B0EDB2E4B2002D08D0002C27D002B051
:108EE0001CBC90469946A246F0BD012401A8FFF79C
:108EF000D1FF052831D000282AD000210022FFF719
:108F00006FFA002CF1D16A461D4B01A91B88938092
:108F10001D4B1C68201CFFF7C1FF0528E5D0002869
:108F200010D000210022FFF75BFA0024D3E73C6851
:108F3000338801A9201C0B80FFF7B0FF0528CED095
:108F40000028EED14346201C1B6898470024C2E746
:108F50004B4601981B689847D3E7002CBFD1534676
:108F60006A461B8801A99380074B01251C68201CB9
:108F7000FFF794FF0528D2D1B1E7C0463423002083
:108F80002E230020382300203023002038B5041C75
:108F90000720002901D08D0700D038BD09480160A5
:108FA0000949201C0A80094A09491360FFF774FF28
:108FB0000028F2D10122074B16301A70FFF768FF24
:108FC000EBE7C046302300202E2300203C23002066
:108FD000A18E01002C23002008B50A4B1B68002B32
:108FE00008D09847002800D108BD00210022FFF7D3
:108FF000F7F9F9E7044B1B78002BF5D0FFF756FF84
:10900000F2E7C0463C2300202C23002003210A481D
:1090100002680A430260094802680A43026008497C
:10902000084A094B9B1A03DD043BC858D050FBDCAF
:109030000648804706480047240500405405004084
:10904000C89001000020002070200020F58D010054
:10905000C1800100FEE7FEE7FEE7FEE7FEE7FEE770
:10906000002310B5934203D0CC5CC4540133F9E71C
:1090700010BD0023C25C0133002AFBD1581E70478B
:10908000F8B5C046F8BC08BC9E467047F8B5C04667
:10909000F8BC08BC9E46704743000000002000203A
:1090A0009822002002010417FF5900130202100148
:1090B0000302010000000000000000000000C200E8
:0890C00000F0FF7F0100000039
:1090C8000000000000000000000000000000000098
:1090D8000000000000000000000000000000000088
:1090E800989001000000000000000000000000004F
:1090F8000000000000000000000000000000000068
:109108000000000000000000000000000000000057
:109118000000000000000000000000000000000047
:10912800626C655F637562655F70726F746F000073
:040000031000900D4C
:00000001FF
