:020000021000EC
:10B000000080002035FF010075FF010077FF01007F
:10B010000000000000000000000000000000000030
:10B0200000000000000000000000000079FF0100A7
:10B0300000000000000000007BFF01007DFF010018
:10B040007FFF01007FFF0100FDF10100FDD701003E
:10B050007FFF01000000000071CE01007FFF0100B2
:10B0600019D101007FFF01007FFF01007FFF010078
:10B070007FFF01007FFF01007FFF01007FFF0100D4
:10B080007FFF010075C101007FFF01007FFF01000C
:10B0900051C201007FFF0100A5FE01007FFF0100FA
:10B0A0007FFF01007FFF01000000000000000000A2
:10B0B0000000000000000000000000000000000090
:10B0C00010B5064C2378002B07D1054B002B02D07E
:10B0D000044800E000BF0123237010BD9C2800201D
:10B0E000000000008C0D020008B5084B002B03D0B7
:10B0F0000748084900E000BF07480368002B00D15B
:10B1000008BD064B002BFBD09847F9E70000000074
:10B110008C0D0200A02800209828002000000000CC
:10B12000164B002B00D1144B9D46402292029A1AD6
:10B13000924600218B460F461348144A121A00F01B
:10B1400067F80F4B002B00D098470E4B002B00D018
:10B1500098470020002104000D000D48002802D06F
:10B160000C4800E000BF00F02DF82000290000F09E
:10B170005BF800F011F8C0460000080000800020D5
:10B1800000000000000000009C280020BC2E0020D1
:10B190000000000000000000084B10B5041C002B4C
:10B1A00002D0002100E000BF054B1868836A002B25
:10B1B00000D09847201C00F033F8C0460000000083
:10B1C000E00A02000E4B70B500251E1C0D4CE41A5F
:10B1D000A410A54204D0AB00F35898470135F8E716
:10B1E00005F070FC084B00251E1C084CE41AA41046
:10B1F000A54204D0AB00F35898470135F8E770BD7D
:10B2000090280020902800209028002094280020DA
:10B21000031C8218934202D019700133FAE7704779
:10B22000FEE7C04648DF704738B500200521144AC4
:10B23000002301F031FA002801D000F041FFA023E3
:10B24000A3228025802480208021DB05D200AD034D
:10B25000E403000449049D509C5098509950094AB9
:10B260009D509C509850995000F08AFE00F0E6FEE8
:10B27000FFF7D8FF0028F9D000F022FFF6E7C0461C
:10B28000B82800200C05000038B502291CD012D9BE
:10B2900003290AD004290DD1002A08D12F4C237884
:10B2A000052B07D10123237004E0002A1AD02B4C70
:10B2B0000023237038BD0129FCD1284C002AF7D186
:10B2C0002378042BF6D1EDE7002AF0D1234C237824
:10B2D000022B23D0032BEDD121491F22214804F05A
:10B2E000D1FFDFE71D4C2378062BE3D11C4D1E4B0D
:10B2F0001F221968281C04F0C5FF281C1B490422C2
:10B30000243004F0BFFF042319482370291C28228D
:10B31000002303F04DFE0028CAD1CBE7154B1A6875
:10B32000154B9A420ED0104B0E4819681F2204F09C
:10B33000A9FF062311482821237003F015FF0028D8
:10B34000B6D1B7E703230648237009492822002312
:10B3500003F0B6FE0028ABD1ACE7C046642800205D
:10B36000802A0020902E0020B82A0020E40A020043
:10B37000A82A0020BC2A002088442211B02A0020DC
:10B3800008B503F0E9FB08BD034B18780138431EEC
:10B390009841C0B27047C04664280020F8B5374EC7
:10B3A000002A51D000231F1C041D3419A1425F4103
:10B3B00035183C1C0F1DBD425B41234309249442B8
:10B3C000A44164421C424DD02B1C0B439B0749D126
:10B3D0000F68131FDBB29B082F6001334F689C007E
:10B3E000E4B26F60022B1DD08F68AF60032B19D0C1
:10B3F000CF68EF60042B15D00F692F61052B11D09A
:10B400004F696F61062B0DD08F69AF61072B09D093
:10B41000CF69EF61082B05D00F6A2F62092B01D08D
:10B420004B6A6B62A2420FD00B5D35182B55631C23
:10B43000DBB29A4208D9CF5C0234F318E4B21F544D
:10B44000A24201D90B5D2B5505220D4B311C1A7000
:10B450000C482332002303F0EFFD031C58425841EF
:10B46000C0B2F8BD0023551EEDB20135CC5C3218D8
:10B47000D4540133AB42F9D1E6E7C046802A00201C
:10B4800064280020B02A002070B5041C82B01A483D
:10B4900004F0FEFC00282BD103F044FC002802D06D
:10B4A000002002B070BD28236A46144D9380273BCC
:10B4B000D380134B6846291C009303F0D9FC002865
:10B4C000EED1104E281C0021321C03F049FD00284B
:10B4D000E6D102220C4B0D481C600D4B311C1A703A
:10B4E0002423023203F0ECFD43425841C0B2D8E7B6
:10B4F00000F0E6FDD0E7C04681B30100B02A00208D
:10B5000089B20100A82A0020B82A0020BC2A002005
:10B510006428002008B500281BD10E4B0E481A786D
:10B52000597812020A4302809A78D97812020A43A3
:10B5300042801A79597912020A4382809A79DB791A
:10B5400012021343C380054B1B68002B01D004215A
:10B55000984708BDC82A0020C02A0020E82A0020F9
:10B5600008B50548054901F043FB002801D000F06B
:10B57000A7FD012008BDC04668280020200B02005E
:10B5800070B5051C84B0204801F002FC6A461F4BD0
:10B59000694651CB51C21E4C1B68201C136005220A
:10B5A0001C4B01F005FB002801D000F089FD201C98
:10B5B00019490222002301F051FB002806D1174B44
:10B5C00000201B78682B08D004B070BD00F078FD17
:10B5D000124B00201B78682BF6D12A68104B201CD8
:10B5E0001A6010490522002301F038FB002807D11A
:10B5F0008021A0220C4B8903D205D1500120E3E722
:10B6000000F05EFDF4E7C046B80B0000E80A020057
:10B6100068280020D02A0020000B0200C82A002041
:10B62000E82A0020400B02000C05000072DF704782
:10B6300073DF704774DF704776DF704778DF7047DD
:10B640007ADF70477CDF70477FDF7047A9DF704784
:10B650007047C04608B500F033FD08BD10B5041CA6
:10B6600004F080FA2148211C00F004FA2388103BE2
:10B670009BB2452B0CD81E4A9B00D3589F461D4BAE
:10B6800013211888FFF7D8FF002801D000F018FD1B
:10B6900010BD237A002B06D11748FFF7C9FF0028F9
:10B6A00001D000F00DFDA288124B1A80F0E70122B4
:10B6B000104B524210481A80FFF7BAFF0028E7D01B
:10B6C000E4E70C4B8521188800220023FFF7BCFF1C
:10B6D0000028DDD0DAE7074B00211888002200237C
:10B6E000FFF7B4FF0028D3D0D0E7C046342B0020AA
:10B6F000680B02008C2800205C2B002008B5037822
:10B70000002B00D008BD054B3B211888FFF794FFA4
:10B710000028F7D000F0D4FCF4E7C0468C280020C5
:10B7200008B5011C014803F035FF08BD742B00204B
:10B73000013910B5042923D8002821D0041CFFF7B3
:10B7400079FF002823D1134A134813781321DB43D0
:10B75000DBB2037313702378104A437363788373E7
:10B76000A378C373E378037413780133DBB2FFF774
:10B770005DFF002808D10A48FFF75AFF002800D1D2
:10B7800010BD00F09DFCFBE700F09AFCF3E700F031
:10B7900097FCD8E7582B00207C2E00205C2E002040
:10B7A0005C2B002070B51C4C1C491322201C04F09B
:10B7B00069FD1B4E301C04F091FD0823194D01302A
:10B7C000C2B22A70311C013AA81C6B7004F05AFDF9
:10B7D0002B78201C0133DBB213212A1CFFF726FF34
:10B7E000002801D000F06CFC0F4C0021201C182216
:10B7F000FFF70EFD0023237063602372E360643360
:10B800002382201C283B6382FFF712FF002801D00F
:10B8100000F056FC70BDC0467C2E0020840C020057
:10B82000802800205C2E00205C2B002070B59AB090
:10B8300005AD7E490422281C04F024FD281C7C4907
:10B840004822002304F0DCFA002800D0EAE00AAC29
:10B8500000200121221C04F03DFB002800D0DEE086
:10B86000744804F04FFB002800D0D5E0201C04F001
:10B8700053FB002800D0CCE06F4804F0FFFA00280A
:10B8800001D000F01DFC0F2101222B786B4E8B4361
:10B89000134310220B401343301C2B7004F01EFD89
:10B8A000311C82B2281CFFF7CDFE002800D0ADE08D
:10B8B000C0204000FFF7C2FE002800D0A3E0201CFB
:10B8C00000210822FFF7A4FC50232380503363801B
:10B8D0000023A3809133FF33201CE380FFF7B0FEE9
:10B8E000002801D000F0ECFB00211422281CFFF7F7
:10B8F0008FFC0F22012110206B7B93430B431340DD
:10B9000003436B73AB7B93430B4313400343AB7312
:10B910000023EB732B7C934319430A40024300231B
:10B920002A7401224648291C05932A71AB602B73A7
:10B9300003F042FD002863D140220021201CFFF7C4
:10B9400067FC10A83F4904F065F912A83E4904F0CD
:10B9500061F9201C3D4904F05DF93D4B3D491A68F1
:10B9600002A804F099FC0EA802A904F053F93C21A6
:10B970000F200122635C83431343102203401343CF
:10B98000635400223D23201CE25403F0B1FE002842
:10B9900033D1002101A80422FFF73AFC2E4B2F4897
:10B9A00001A9019300F0A0F8002801D000F088FB65
:10B9B0001C22201C0021FFF72BFCA02292026260B7
:10B9C000F02200231203A26003220A93E38123746E
:10B9D000234B201C6361234B2273A36104F086F880
:10B9E000002801D000F06CFB8021A123A022490493
:10B9F000DB00D205D1501AB070BD00F061FBC8E782
:10BA000000F05EFB98E700F05BFB58E700F058FBA6
:10BA10004EE700F055FB2FE700F052FB26E700F061
:10BA20004FFB1DE700F04CFB11E7C046800C020005
:10BA3000EC2A0020E81F00205DB60100980C0200EF
:10BA4000742B0020A40C0200AC0C0200B40C020009
:10BA500080100010C00C020051B60100342B0020F1
:10BA6000FDB6010055B60100A0DF7047A2DF7047A8
:10BA700063DF704770B5002808D0002906D00B8816
:10BA8000112B1ED0502B02D0102B17D070BD8D1D46
:10BA90006A89002AFAD00E1C041CCB8880881236D2
:10BAA000984212D0A089984218D0A18A9942EDD12B
:10BAB000012AEBD1287B00F04BFAE7E78B888383E0
:10BAC000E4E701235B428383E0E7D2B2311C00202C
:10BAD000FFF764FC236A201C9847D7E7D2B2311CD9
:10BAE0000F20FFF75BFCD1E7F0B54D4656464446C4
:10BAF0005F461023F0B495B0061C0D1C04A89E49A7
:10BB0000102299460E2404F0BDFB002E0CD0002D0F
:10BB10000AD001235B42B3832B6804A83362311C33
:10BB2000FFF7A6FF041E07D0201C15B03CBC9046B2
:10BB30009946A246AB46F0BD337802A98B7001232B
:10BB4000B21C01209B460B80FFF78EFF041EEBD139
:10BB50000DAD00211C22281CFFF75AFB02222B7876
:10BB600000211343DBB206321343042290464246BF
:10BB700013436A462B70337801A89373052393818E
:10BB800003226C60EC602C616C61AC61FFF740FBE0
:10BB90000F226B4692461B7908AF93430E3A13432C
:10BBA00052461340013213436A4613715379524689
:10BBB00093430E3A134352461340013213436A46ED
:10BBC0005371937906229343424613430822DBB212
:10BBD00093434A4693435A4693436A4600219371DE
:10BBE000381C1422FFF714FB03AB089301AB7B60F6
:10BBF00053463B81BB81614B70883B61291C331DDF
:10BC00003A1C7C81FFF732FF041E00D08CE7002134
:10BC10001C22281CFFF7FCFA02222B780021134378
:10BC2000DBB206321343424613436A462B70337825
:10BC300001A893730A23938103226C60EC602C614A
:10BC40006C61AC61FFF7E4FA6B4652461B79002148
:10BC500093430E3A134352461340013213436A464C
:10BC600013715379524693430E3A1343524613408D
:10BC7000013213436A465371937906229343424635
:10BC800013430822DBB293434A4693435A469343F5
:10BC90006A46381C93711422FFF7BAFA03AB089373
:10BCA00001AB7B6053463B81BB81344B70880F33C3
:10BCB0003B61331C291C3A1C0C337C81FFF7D6FEF8
:10BCC000041E00D030E700211C22281CFFF7A0FA38
:10BCD00008222B7800211343424613436A462B70F7
:10BCE000337801A893736B4652469A8103226C60A5
:10BCF000EC602C616C61AC61FFF78AFA6B465246CE
:10BD00001B79002193430E3A1343524613400132EC
:10BD100013436A4613715379524693430E3A1343C1
:10BD200052461340013213436A46537193790622F7
:10BD30009343424613430822DBB293434A4693435C
:10BD40005A4693436A46381C93711422FFF760FAEF
:10BD500003AB3B6001AB7B605B463B81BB81074B28
:10BD600070881E333B61331C291C14333A1C7C81C0
:10BD7000FFF77CFE041CD7E6C40C0200902E0020C6
:10BD8000038847491AB270B58A423CDC45499BB2E8
:10BD90005918454C89B2A14221D80122434B1A803F
:10BDA00042883F4C11B2A14235DC3E4C92B214198C
:10BDB0003D4DA4B2AC4244D93D4C3E4E1419A4B200
:10BDC000B44254D93C4CA446624492B2AA4261D9CE
:10BDD0003A4A914221DA022252425A801DE0344905
:10BDE000344D591889B2A94244D933498C46634429
:10BDF0009BB2A34242D9314B9A424FDA02222B4BDB
:10BE000052421A80CCE70222284B254C1A804288E5
:10BE100011B2A142C9DD02225A808288204C11B29F
:10BE2000A14204DD02229A80C288DA8070BD1D4CD6
:10BE300092B214191C4DA4B2AC4205D801229A80CA
:10BE4000F2E701225A80E8E7194C1A4E1419A4B2FD
:10BE5000B44209D9184CA446624492B2AA4212D8FC
:10BE6000012252429A80DFE700229A80DCE700221A
:10BE70005A80D2E700220D4B1A8091E701220B4B2A
:10BE800052421A808CE70D4A9142CDDA0222524288
:10BE90009A80C9E7012252425A80BEE7034B7FE7EE
:10BEA00030380000CFE7FFFF9E0F0000AC2B0020D2
:10BEB0002F1800005E300000CF270000D0C7FFFF22
:10BEC00038B51E4A0021535E012B21D001332DD0FD
:10BED0001024022300200225515F012902D04B1CAF
:10BEE00022D0031C0421525E012A15D0013217D042
:10BEF000023BDBB21E2B04D8114AD35C052B19D9A7
:10BF000038BD00200F4B0521C018FFF711FCF7E7E3
:10BF1000112403230120DEE704221343DBB2E7E709
:10BF200020221343DBB2E3E7231CDBE718240A23B8
:10BF30000820D0E705205843C0B2E3E7AC2B00202F
:10BF4000F80C0200902E002008B5FFF709FB08BD91
:10BF5000A92800D070478022B121064BD205D150CC
:10BF6000BFF34F8F044A054BDA60BFF34F8FC046D3
:10BF7000FDE7C0461C0500000400FA0500ED00E0E6
:10BF800010B582B0FFF752FC234C201CFFF77CFA5F
:10BF9000002832D0FFF7F8F90028FBD11F4B01A889
:10BFA0000193FFF7EDFA002806D1FFF7FBFB142001
:10BFB000FFF7B6FB02B010BD19480121194A00F085
:10BFC000DDFB002825D118480121184A00F0D6FBD6
:10BFD00000281BD180211648C901002200F0E8FB8F
:10BFE000002810D1802113480902002200F0E0FB54
:10BFF0000028DAD000F064F8D7E7211C1F220E4891
:10C0000004F040F9CAE700F05BF8EBE700F058F8FD
:10C01000E0E700F055F8D6E7D40C020081BD01003E
:10C02000180D020049BF0100F40C0200C1BE01005E
:10C03000B42B00208C2B0020902E00201E4B1A8841
:10C0400011B200292EDD8020A0211C4AC003C905A1
:10C0500088505A8811B200291ADD8020A021174A81
:10C060000004C90588509B881AB2002A06DD802189
:10C07000A022124B4904D205D1507047002BFCD0AE
:10C080008021A123A0224904DB00D205D150F4E78E
:10C09000002AE8D08020A122A0210004D200C905F6
:10C0A0008850E0E7002AD4D08020A122A021C0033C
:10C0B000D200C9058850CCE7AC2B00200C0500004D
:10C0C000002300B585B001AA9060002103481380C9
:10C0D000536000F005F805B000BDC0460140000007
:10C0E000BFF34F8F034A044BDA60BFF34F8FC04654
:10C0F000FDE7C0460400FA0500ED00E08021802342
:10C10000184A8902D1508022D221174B520289004D
:10C110005A5040395A5001222F205A600138C046E7
:10C12000C046C046C046C046C046C046C046C046DF
:10C13000C046C046C046F1D19A6000230B4A2F206A
:10C1400013600138C046C046C046C046C046C0461F
:10C15000C046C046C046C046C046C046F1D1044AAB
:10C160001370704700E100E000100140D42B002064
:10C17000F42B0020A021F0B5002347462B4A4900AC
:10C1800080B4535004315350043153500431535050
:10C190004C39535004315350254B1B68002B35D07C
:10C1A0002449002652582449244F0C68141B0022AD
:10C1B0002402240A904602E0002D18D02B1C1A6895
:10C1C000A24214D8A41AB6181A7CDD69002AF3D04A
:10C1D000424699691A745A693B68002B19D0101CA1
:10C1E00098470028E8D0FFF76BFF002DE6D1144BED
:10C1F00014491A780B789A420ED0134A9B009E502D
:10C2000080218023114A49035B00D15004BC904631
:10C21000F0BD081C9047CFE70132D3B2022B01D00A
:10C220000B70EAE700230B70E7E7C04600100140FF
:10C23000D82B002004050000D42B0020DC2B00208C
:10C24000E82B0020E92B0020EC2B002000E100E08F
:10C25000F0B55F4656464D464446F0B4B44BB54A39
:10C260001B68B54989B0019309781378994200D1C8
:10C27000B1E10133DBB2022B00D100231370AF4ACE
:10C280009B009B58AA4A9946019B4B441B021B0AE0
:10C29000136001230493AA4B00241B689B46A94BFF
:10C2A000D8461B781A1C0293A74B944607931B6829
:10C2B00003939F4B1B680693A44B1B7805935B4627
:10C2C0006646013EF2B29446FF2A4FD06246D00045
:10C2D000039A9246504401784578A942F0D04A002A
:10C2E0005218877801314668C9B27F1AB2467E1E5D
:10C2F000B741D2007F42524439401778022F0AD00A
:10C30000032FEAD1002BE8D01C74DB69002BFBD192
:10C3100045789846E1E75668002B25D09E421AD012
:10C320001F1C00E0171CFA69002AD6D09642F9D1EA
:10C33000321C3D1CBE4200D1EBE01768D269EA61B5
:10C34000002A06D013689A4657441760457843463A
:10C35000C3E74578C1E7DE691A1C002E00D1DDE095
:10C36000B046331C151CE8E70023B6E76946774A58
:10C37000097D181C11706E4A06990393116041469D
:10C380006F4A1160049A002A00D028E15B461B1A0C
:10C390005A1E93410025DBB20493079B00271B68BC
:10C3A000039E0693624B1B689C46654B1B689A462E
:10C3B000664B1B780593664B019301239846029BBD
:10C3C000013BDBB20293FF2B00D18FE0069ADB002A
:10C3D00093469B44002D27D06968AB68281CED6903
:10C3E0006246019C8A1A1202120AA24250D8D3183D
:10C3F00042460360476087600274C761002E56D0D2
:10C400003168341C994204D35FE01168994263D2C9
:10C41000141CE2695B1A002AF7D10360331CC26165
:10C42000E0611E1C002DD7D15B465A461B7852781E
:10C430009A42C4D0594649685A0089465946D2188A
:10C440000133DBB20B708978D2004A4499424AD05A
:10C4500011785068331C0129E3D1037C9946494681
:10C46000331C0029DDD191684160D3688360146971
:10C47000C46052698261059A002AB1D04A460021FF
:10C4800042606246019C8A1A1202120AA242AED986
:10C490006246511A0902090A99420CD242465B1AB5
:10C4A0000360476087600274C761002EA8D1031C37
:10C4B00082461E1CB6E743460760476087600374E8
:10C4C000C761002EF3D000233168CB1A3360031C00
:10C4D000C66182461E1CA5E7C91A11600360C261CD
:10C4E000331CE0619DE75B461D70B1E75246144B7B
:10C4F0001A60039BB3422FD1049B002B2CD1002345
:10C50000124A137009B03CBC90469946A246AB460D
:10C51000F0BDDE693A1C002E00D021E701250D4B4D
:10C520009D600023069601369846151C059604E783
:10C53000D42B0020E82B0020E92B0020EC2B00203E
:10C54000D82B0020E02B0020E42B0020EA2B002039
:10C55000FEFF7F0000100140002E63D0484B494988
:10C560003568CC58484B494E1B683078E21A1202A5
:10C57000120A03329046002861D04246AA4200D2F5
:10C580002A1CA820D21812023E49130AC0003C4DB2
:10C590000B504A591B1B121B1202120A1B020332B8
:10C5A0001B0A9A42ABD94B590B502F200138C04679
:10C5B000C046C046C046C046C046C046C046C0464B
:10C5C000C046C046C046F1D180218023304A89024E
:10C5D0005B00D15093E70023994604935BE6002566
:10C5E000002100244846464613E01A6882421CD8BF
:10C5F000DE68801A89181C60DF69002E07D0DD61B3
:10C600001D1C019A9E608A181202120A5A603B1C75
:10C610003E1C002BE9D11F4B1E6000230393013306
:10C620000493BAE6FFF76AFD69E781461949039367
:10C630000E604946521A1A6001230493ADE6802029
:10C64000D1274002BF00C851403FC851C0228027B7
:10C650000F48BF0252008750076001272F200F604C
:10C660000138C046C046C046C046C046C046C04667
:10C67000C046C046C046C046C046F1D137707CE7D0
:10C680000405000000100140D42B0020F42B0020F2
:10C6900000E100E0D82B0020F8B54F464646C0B474
:10C6A0000326351C80460F1C141C99461540072094
:10C6B000002D03D00CBC90469946F8BD002A44D00A
:10C6C000FFF71CFD4A46224B80201A60221C214B9A
:10C6D00018321E70204B62601C607B00DB19DB008F
:10C6E000D218E260D318C022636125706570A7700C
:10C6F00025726572A77225746574A774C524FF211D
:10C70000164B40031D60164B52001D70154BA400C4
:10C710001D70154B98501A598A433F390A431A51D4
:10C72000A122186040461149D2008850C4208000E0
:10C730001C580F4A2240C024240222431A500D4B99
:10C740000020CA580C4B1A60B4E7034B1A60B1E7DB
:10C75000DC2B0020E02B0020E42B0020D82B002035
:10C76000E82B0020E92B002000E100E00010014050
:10C77000FF00FFFF04050000D42B002010B50B4B79
:10C780001B68002B0BD0002A07D0002805D00368B7
:10C7900008201C7C002C04D010BD0720FCE70820DA
:10C7A000FAE759745A610020F6E7C046E42B0020EE
:10C7B000F0B5474680B4374B1C68002C08D00028E1
:10C7C00006D00723042905D8181C04BC9046F0BDE8
:10C7D0000823F9E74369002BFAD00025437CA846DB
:10C7E000012B2FD0EFF30583DB05DB0D1025002B8C
:10C7F0002CD164196378A5785E1CF6B2AD1B6F1E50
:10C80000BD416D422E402578B5421DD05D00EB182C
:10C810006568DB00ED180423002DD5D0033B2B7099
:10C8200068601D4B1D48C358E960AB6043468021DA
:10C830002B6180236A611A4A5B0049036670D150FC
:10C840000023C1E78846CDE70423BDE7103BDEB2F5
:10C8500075B2002D13DBAD08114EC035AD00AD59DA
:10C8600003263340DB00DD402B069B0FDBB20025A7
:10C87000012BBED00835032BBBD00835B9E70F23F9
:10C88000084D3340AC46083B9B089B0063445D6801
:10C890000323E6E7E42B002004050000001001401C
:10C8A00000E100E018ED00E030B52E4A031C1268EC
:10C8B0000820002A2ED0002B2CD05969002929D01D
:10C8C00000211974EFF30581C905C90D1025002950
:10C8D00023D155196A78A978541CE4B2091B481E63
:10C8E000814149420C402978A14214D051008A1854
:10C8F0006968D2008C4662440420002A0AD00221D2
:10C9000053601170802380210020174A49035B0087
:10C910006C70D15030BD0420FCE71039CCB260B24D
:10C92000002813DB8008104CC0308000005903241D
:10C930002140C900C8400106890FC9B2002501295C
:10C94000C7D008350329C4D00835C2E70F210748EE
:10C9500021408446083989088900614448680321D8
:10C96000E6E7C046E42B002000E100E018ED00E01F
:10C970000023C0B288724B727047C046F0B556466D
:10C980004D4644465F460023F0B485B001AD041C1B
:10C99000281C0E1C2B7000F0C5F9002E02D1E36894
:10C9A000002B0DD1032398466379A279DBB20027CF
:10C9B000012693422AD10023E360E368002B37D19C
:10C9C000287800F0CFF905B03CBC90469946A246C5
:10C9D000AB46F0BD597931402970AF60EF709A795C
:10C9E00032405201201C291C103000F031FE00287A
:10C9F000E9D0E3681B68002B5BD1281C2B7000F08A
:10CA000091F96379A279DBB29342D4D021689A007C
:10CA10008C46013320796244DBB2126800219842CF
:10CA200000D3191C131C6171E360E368002BC7D0AD
:10CA3000287800F097F92772227AE368D2B2D10001
:10CA40008B469B685B44597949086970196869602D
:10CA50001979A97099790E42BCD059798C46314028
:10CA600025D101329146E068027B9145B4DA082075
:10CA70008146E268D94492684A4450796246400847
:10CA800052088242A8D14246E36898684844036845
:10CA9000AB600379EB7043793340D31A2B70237A60
:10CAA000827901333240DBB2520123729AE70121CD
:10CAB00092E7E268E36851681B689847281C2F706A
:10CAC00000F030F99DE7C046F0B5474680B40378E2
:10CAD00084B00C1C002B18D10B7ACA680133127B6E
:10CAE000DBB200209A4212D8E3681B68002B04D006
:10CAF000E268E36851681B689847201C0121FFF732
:10CB00003DFF04B004BC9046F0BD0320ECE70B727F
:10CB1000087ACB68C0B29B68C6009B195A7901A9F4
:10CB200052084A701A684A601A798A7001229D79FF
:10CB30002A4229D05D79A846151C47463D4034D18C
:10CB4000E76801303F7BB84220DA4746E0680836A4
:10CB500080687F08801940794008874216D1E368D1
:10CB60009B689E1933688B603379CB70737913405F
:10CB7000181C03231B1A0B70B3791A40237A520135
:10CB80000133DBB2237209E05D79154000220D709C
:10CB90008A60CA709B7901321A405201201C103001
:10CBA00000F056FD00289FD1ABE70125EEE7C04617
:10CBB000F0B5061C4746041C103680B49846171C76
:10CBC000301C0A4A231C00F041FC051E09D1301C10
:10CBD00000F02CFD434665712360A57127716572D5
:10CBE000E560281C04BC9046F0BDC046C9CA0100DF
:10CBF00030B583B06A46041C0023D01DD3710D1CD0
:10CC000000F090F8A3792279DBB29A421CD06279C5
:10CC1000013A93421BD021689A008C466244156009
:10CC200001332179DBB2002299420BD26B46A2710B
:10CC3000D87900F097F8201C0021FFF79FFE002014
:10CC400003B030BD1A1CF1E76279002ADFD16B46D0
:10CC5000D87900F087F81120F2E7C046F0B54F46CA
:10CC60004646041CC0B41F1C002387B002AD281C1C
:10CC7000894690462B7000F055F8667AF6B2002E81
:10CC800036D101232878637200F06CF8244B6C6075
:10CC900002934B46AB6043462B736B46D81DDE7147
:10CCA00000F040F8A3792279DBB29A422ED0627963
:10CCB000013A93422DD021689A008C466244156057
:10CCC00001332179DBB20022994200D31A1C6B4652
:10CCD000A271D87900F046F8201C0021FFF74EFE23
:10CCE000002F0ED1637A002BFCD1A07AC0B203E0F2
:10CCF000287800F037F8112007B00CBC9046994610
:10CD0000F0BD637A002BF0D0B847E9E76279002ADA
:10CD1000CDD16B46D87900F025F81120ECE7C0465C
:10CD200071C90100F0B5EFF3108172B60A4B5A6871
:10CD3000002A0DD101248025084E5C607459084FEB
:10CD40003C401C6077510270002900D162B6F0BDF2
:10CD500001230370F8E7C046B02E002000E100E098
:10CD6000FC06FFBC10B5084B5A68002A0BD00028FF
:10CD700009D1EFF3108272B604491C680C60586048
:10CD8000002A00D162B610BDB02E002000E100E004
:10CD900082B00190019B002B14D0019B0A48013BFB
:10CDA00001930138C046C046C046C046C046C04692
:10CDB000C046C046C046C046C046C046F1D1019BF1
:10CDC000002BEAD102B07047E703000010B500283D
:10CDD0000BD1064C6368002B07D01A6800205B68F3
:10CDE000626098476368002BF7D110BDF82B0020D4
:10CDF000F0B5002820DBFF271B4B03229C463B1C81
:10CE00008408C026C0B20240D2009340A40064440B
:10CE1000B600A5599D438B013B409340191C294303
:10CE2000A1511F2318401E3B8340C022181C0E4BEB
:10CE3000520098501860F0BDFF260C4A0324944617
:10CE4000321C0F23C0B20440E400A2400340083B60
:10CE50009B089B006344DD6995438A013240A240F0
:10CE6000111C2943D961DCE700E100E000ED00E09E
:10CE7000F0B544465F4656464D46F0B49C4A87B0EE
:10CE800013680024012B00D1AEE09A4B1A68012AE6
:10CE900000D1B7E0984B1A68012A00D1C2E0974B45
:10CEA0001A68012A00D1CDE00022954B02921A683F
:10CEB000012A00D1D8E023070BD0E30700D5DFE03B
:10CEC000A30700D5EBE0630700D5F6E0230700D504
:10CED00002E1002C06DB07B03CBC90469946A24616
:10CEE000AB46F0BD002301270493C03399460126C9
:10CEF000844D7F4200230393E023DB000024984607
:10CF0000231C4033E95C4BB201332CD0C9B24B46F1
:10CF1000081C98433B1CC3401E4224D08B0901933C
:10CF20002B1820331B785BB29B00EB589C46002BE0
:10CF300035D0331C83409A46019B032B35D0A02368
:10CF4000DB059B46434682005A44D3580592C022D3
:10CF5000920213401B0C191C53469346029A1A4224
:10CF600012D1032926D00134042CC9D1039B002BF4
:10CF7000B1D0A223A022DB00D205D358029A9A4254
:10CF8000A9D0049F0293B5E70229ECD1019B032BA2
:10CF900016D06346002BE6D00199E047E3E7019BFA
:10CFA000032BE0D1331C83409A465246049B134323
:10CFB0000493C4E7019B032BEBD180239B029B4688
:10CFC00043460599CB589A4652464F4B134042462A
:10CFD0008B508B585A461A43131C42468B50039B66
:10CFE0000133DBB20393D4E7C1214848890041589B
:10CFF0000B4200D149E73F4B14601A680134012A03
:10D0000000D047E7C12241499200895802220A42D2
:10D0100000D13FE700211960374B14431A68012AF9
:10D0200000D03CE7C12239499200895804220A42C3
:10D0300000D134E700211960304B14431A68012AEB
:10D0400000D031E7C12231499200895808220A42B2
:10D0500000D129E70021144300221960284B0292D5
:10D060001A68012A00D026E700221A6080231B06D6
:10D070001C43A022A223D205DB00D35802931AE757
:10D08000A223224ADB00D058D1581E4DC004890388
:10D090002B68C00E890F9847A30700D413E71C4BD9
:10D0A0001A4A184DD058D158C00489036B68C00E75
:10D0B000890F9847630700D408E7A323134ADB00CE
:10D0C000D058D1580F4DC0048903AB68C00E890FEA
:10D0D0009847230700D4FCE60C4A0E4B094DD05864
:10D0E000D158C0048903C00E890FEB689847F0E659
:10D0F0000061004004610040086100400C61004094
:10D100007C610040042C0020FFFFFCFF0060004019
:10D11000140500001C05000008B5264B1A68002AFB
:10D1200005D0C122244992008A58D20327D4234B28
:10D130001A68002A05D0C1221F4992008A5892031A
:10D1400026D41F4B1A68002A05D0C1221A49920022
:10D150008A58520325D41B4B1A68002A05D0C122D5
:10D16000154992008A58120300D408BD0022A62057
:10D170001A60154B400059681B689847F5E7002274
:10D18000A0201A60104B400059681B689847CEE7F2
:10D190000022A2201A600C4B400059681B68984777
:10D1A000CFE70022A4201A60074B400059681B6893
:10D1B0009847D0E740810040008000404481004013
:10D1C000488100404C8100404C2C0020F0B54D4679
:10D1D00044465F465646F0B409AC25780AAC24783C
:10D1E000A4460C78002C17D11678B046922676000B
:10D1F0008759B346002F20D0331C243BFF3B84517A
:10D2000043610B70A8450FD00124201C3CBC904604
:10D210009946A246AB46F0BD9222002352008350AD
:10D22000083A8350143A835082235B00C258002A84
:10D23000EAD000220024C250E7E78E267600B146ED
:10D240008659B246002E0BD04E4687515E4686590F
:10D25000002E23D05B46C750012343610B70D1E7FA
:10D26000842464000759002FCCD0564606515C46F2
:10D270000459002C22D111788D42C3D9A324E40093
:10D2800004595C5413780133DBB213706A1E934265
:10D290001DD09D42B6D001230362B3E711788D42C1
:10D2A00005D86346002B0FD00123C361ADE7595C5D
:10D2B000094BC150137801331370A3E701235A4679
:10D2C000865043610B709DE7012343619AE78023F9
:10D2D00002229B00C250DEE71C050000F0B5444668
:10D2E0005F4656464D46F0B4822483B00192002238
:10D2F00064000A5120340A51083C0A51143C0A5176
:10D30000E23C0255033C0255012B16D08022012439
:10D3100092008C5001220A620A600268002A16D02C
:10D32000484B8360826800207E33CA5003B03CBC07
:10D3300090469946A246AB46F0BD8022213C920021
:10D340008C5001220A620A600268002AE8D11D326C
:10D35000FF329046143A9146043A92259246DE3ABC
:10D360002327002693466D000093C25D002A1DD13D
:10D370005C46045DA4464C59002C2AD142468A588A
:10D38000002A2ED042468C504A59002A4CD15A4687
:10D39000009B825C93424CD9019CA45C2A4A8C502D
:10D3A0005A465C46825C0132025516E042464E51B6
:10D3B0008E504A468E5052468A58002AD5D0822333
:10D3C00000225B00CA50E13BC35C002B2AD0032043
:10D3D000ACE74A5101224A61C255009B6345C4D162
:10D3E000E9E74C460C59002CF7D04C460A514C59F1
:10D3F000002CEED15A46009B825C9342EDD9A324C7
:10D40000E4000C59019B9C545B46C25C0132D2B2D1
:10D41000C254009B5C1EA2420ED09342DDD001227A
:10D420000A62DAE7002081E701224C514A61C255C5
:10D43000D3E701224A61D0E78022022492008C5077
:10D44000EDE7C046860200001C050000F8B5444622
:10D450005F464D465646F0B404798446A0006D4FB1
:10D4600080460019C0003818203085780820002D2B
:10D4700005D03CBC90469946A246AB46F8BD002973
:10D4800000D1C3E040460019C0003A503A1853603A
:10D4900000239360203253711371A0230A685E4801
:10D4A000C132FF32DB059200D0504A68C132FF32F0
:10D4B0009200D0500120051C0A689540A122D2009C
:10D4C0009D504D68A84098500868544DC130FF30B9
:10D4D0008000C5504868C130FF308000C55004202E
:10D4E0000138C046C046C046C046C046C046C046D9
:10D4F000C046C046C046C046C046F1D1A220C000CA
:10D500008246474800260125834691465246486890
:10D510009A58C240154200D075E02A1C0868824023
:10D5200058461A5004200138C046C046C046C0467E
:10D53000C046C046C046C046C046C046C046C046BB
:10D54000F1D12A1C0868824048461A50042001384C
:10D55000C046C046C046C046C046C046C046C0469B
:10D56000C046C046C046C046F1D10136092ECDD1D5
:10D57000486801231A1C8240101CA022284DD205A5
:10D58000505104200138C046C046C046C046C0467F
:10D59000C046C046C046C046C046C046C046F1D19F
:10D5A00048688340A120C0001350A0220B681A488D
:10D5B000C133FF33D2059B0098504B68C133FF3312
:10D5C0009B0098506346A1221B680D68D2004868F2
:10D5D0009D50134A98508868124A985043461B1928
:10D5E000DB00FB58002B06D063461868097B000B54
:10D5F00040B2FFF7FDFB01234444E4003F1920370C
:10D60000BB70002035E7002EB3D1CEE706482101DC
:10D61000411837E7582C00200C0600000D060000CA
:10D620000C050000240500001C0D0200A022037957
:10D6300001680520D20088509A00D318034ADB0005
:10D64000D318022220339A707047C046582C00200D
:10D65000F0B54D465F4656464446F0B485B0057970
:10D66000930707D0062005B03CBC90469946A246D9
:10D67000AB46F0BD0668C22301209B004042F0503B
:10D68000AB00581998465A4BC0009C466044041C95
:10D6900020342379A346002B05D0C12382689B0048
:10D6A000F2501120DFE701279308BC469F4308236F
:10D6B000134027710393D5D182619146021C0F1C40
:10D6C00002910C321ACF1AC25946029B9A780A70FC
:10D6D0005A68C2615A789246B1225746D200B75072
:10D6E0001A78012A77D0002A4BD14B4664465A0952
:10D6F0001440A4463E4A434691465B19DB004B4426
:10D70000203302995C704A6892468A788221914659
:10D7100000229A71DA700123490072502031725050
:10D720000839725014397250F8317250336226320F
:10D73000B360815C494528D25346595C2D4BF1506A
:10D74000835C013383544346294A5B19DB00D2587A
:10D75000002A21D0264A00209446274A63449A6032
:10D760009A68C1239B00F2504544214BED005B5960
:10D77000002B00D077E71E4A9446654420352B7174
:10D7800071E7012301249C46B4E76246002A01D0D8
:10D79000F361D8E77361D6E7154A203394466344B2
:10D7A000DA1C063393461F1C4B4601940093301C31
:10D7B00059463A1C5346FFF709FD0028F4D1434669
:10D7C0000B4A5B199446DB0063442033DB78002B63
:10D7D0000BD00330C8E76A46127B029B4A705A6836
:10D7E000311C9B78FFF77AFDBEE70020BCE7C046FE
:10D7F000582C00201C05000086020000F0B54446AD
:10D800004D465F465646F0B4B64B2321DA69585C64
:10D81000904620229C5C01329A5C89B09146002897
:10D8200016D12622922594469F5CAF4A6D00565928
:10D83000AB46002E37D05051012050615854BC42A5
:10D840000FD009B03CBC90469946A246AB46F0BD0D
:10D8500092200021A44A4000115008381150143879
:10D8600011508222A049520088580028E9D0002097
:10D8700088502320195C002926D11E7BB21E012A64
:10D8800058D9191C05AA0C3170C970C2002204A80D
:10D8900002702422002199549A695207D1D4596800
:10D8A0001B689847CDE78E2040001558AA46002DEA
:10D8B0001ED016505846105800286FD058461650A3
:10D8C000012050615854BAE7191C05AA0C3170C9DF
:10D8D00070C28649844C04A86258625002211142E9
:10D8E00003D15207D5D50170D3E701220270D0E7EA
:10D8F000842040001658002EA1D055461550584699
:10D90000105800285AD1BC4299D9A3214046C900D9
:10D910005158C15561466046595C0131C9B219542C
:10D92000601E814250D08C4200D188E701216E4AAE
:10D93000116284E7DA691C69A242A2D15A690127FF
:10D940009046DA612022DC7B9C549A6952093A4065
:10D95000914621224D469D54032E3AD08226624A9A
:10D960007600915120369151083E9151143E9151CB
:10D97000E23E99551954012C50D08021890057500E
:10D980000121594A11621160196800294BD0584988
:10D9900099609968C1239B00D15052E7BC4205D8D9
:10D9A000494600290DD00121D16162E74146C85D99
:10D9B0005049505061467A1C5A5440E750465D46E3
:10D9C00039E7012151613AE7802102208900505056
:10D9D000ACE7454EE332B1502032B150083AB15075
:10D9E000143AB150F832B150DB3AFF3A9954195415
:10D9F00094463762B760002C26D0424610786246C3
:10DA00003C4970509F541A68002A24D0384A9A60C2
:10DA10009968C123344A9B00D15012E7802102202B
:10DA200089005050ACE71F1C26331E1C4546233787
:10DA30000023009401932C48391C321C2B1CFFF747
:10DA4000C5FB0028F4D1FCE64A46002A01D0F76164
:10DA5000D9E77761D7E79220013223270026934642
:10DA6000214940000394DA5D9446002A2BD10C58DA
:10DA7000263292469A5C002C2CD18E256D004D5991
:10DA8000AC46002D38D08E256D004C510D58002D20
:10DA900021D1039C944251D94446A45CA4466546D6
:10DAA000144C0D515546541C5C55039C9442DAD1DC
:10DAB0008222520094468A58002AD4D0002261461D
:10DAC000094B5A50BDE68E2252000E508E50143A29
:10DAD0008E50EDE764460C505C464C615C46DC556C
:10DAE000E3E7C046582C002000300040C40400008A
:10DAF000860200001C050000842464000D59002DDE
:10DB0000D3D065460D510C58002CE3D1039C9442B0
:10DB1000CBD9A3244546E4000C59AC545446554691
:10DB20001C5D0134E4B25C55039D013DAC420FD055
:10DB3000039DA542B9D05C460C62B6E74C46002C6A
:10DB400003D00122054BDA617BE65C464C61ACE711
:10DB500080240225A4000D51EDE7C04600300040AE
:10DB600029DF704728DF704730B583B0002806D022
:10DB7000112806D108230F4A11680B43136003B024
:10DB800030BD021C0C4801788B005B189B00C51847
:10DB9000281CE9686B694C0064182979074DA400BA
:10DBA0002D680C300095064D6459A0470422054BA2
:10DBB0001A70E4E7682D0020802C0020702D0020D2
:10DBC000542D00206D2D0020F0B55F464D46444693
:10DBD0005646F0B45E4F85B03C785E4D012C00D1C6
:10DBE00088E0002C00D16DE0022C16D0032C0DD162
:10DBF000594B1868FFF7B6FF021E07D0112800D056
:10DC000080E00823554A11680B43136005B03CBC03
:10DC100090469946A246AB46F0BD504B99461B68CC
:10DC200003932B789E00F3189B00EE1833699846F7
:10DC300080235B05196940460904090C9B4602F0E4
:10DC40009FF9454B824618605B4619694346581E4A
:10DC5000F3880904C018090C02F092F982454CD0EF
:10DC60000323039C9C434B461C603D4B1B68002BCD
:10DC700002D10233234262D000223A4B1A703A4B4F
:10DC80005869431C54D080235B0519690904090CA9
:10DC900002F076F9031C8022520510691169000414
:10DCA000013B000C09045843090C02F069F9FFF725
:10DCB00059FF021EAAD0112824D108231C434B4629
:10DCC0001C60A3E7294B1C60294B1C606B78002B60
:10DCD0009CD02B789A00D3189B00ED18EA88254B2E
:10DCE0001A602B79032B27D0042B25D0012B00D0D1
:10DCF0008CE73B7000F000FC88E70123039A9A430D
:10DD00001443B0E72B789800C01880002E18301C00
:10DD1000184DF3682D685C00E4183179736900953B
:10DD2000154DA4000C306459A04704233B706DE7E7
:10DD300080235B055B69AEE700F020F866E7094ADF
:10DD400050461370FFF70EFFFFF70EFF5EE7C04669
:10DD50006D2D0020802C00207C2D0020682D0020BF
:10DD6000782D00206C2D002000100010742D002054
:10DD70004C2D0020702D0020542D0020F0B55F4662
:10DD800056464D464446F0B45B4B5C481A788027B3
:10DD900091008A1892009B18DD681E696A0052196A
:10DDA00092008218148950895268604380469044DA
:10DDB000DA881B89141C9946514B92469B460023D6
:10DDC0005A467F05396983B009044C441360090C35
:10DDD000301CA41902F05AF9002924D13B699BB2E6
:10DDE0009A4537D044456CD0022D33D0301C396968
:10DDF000484489B202F04AF9424B890819603969EE
:10DE0000201C0904090C02F041F9002932D1022238
:10DE10003D4B1A70FFF7D8FE03B03CBC90469946C4
:10DE2000A246AB46F0BD022D14D0301C39694844DF
:10DE30000904090C02F02AF9324B89081960396982
:10DE40004445E4D00904090C201C02F01FF9002904
:10DE5000DDD00FE080235B051969301C0904090C33
:10DE600002F08EF80322294B1860274B1A70FFF737
:10DE7000ABFED1E780256D0529692B696A46994675
:10DE80004346D380D08889B202F07AF86A464B467E
:10DE9000A6B2D380071CD188301C02F071F8BFB243
:10DEA00080B287421DD02C692969301C89B202F0EA
:10DEB000EDF85B462404240C89B2641AA4081C60A3
:10DEC000A5E74B46002BC5D0022DC3D0301C3969C5
:10DED000484489B202F0DAF80A4B890819603B69B4
:10DEE00095E7434624041B041A0C240C131B5A46C2
:10DEF0009B0813608BE7C046802C0020542D002027
:10DF0000502D0020782D00206D2D00207C2D00202C
:10DF1000F8B546464F46C0B41D4D08AC24886E780F
:10DF2000A44604240A2E2DD02C78A046A419092C2E
:10DF300000DD0A3C14277C432C196261221C2071ED
:10DF40000C32B94681C981C2E38063462381002433
:10DF5000104B01361A786E70A24213D142464F46DA
:10DF60005743ED190C4AE98811602A79032A07D032
:10DF7000042A05D0012A05D11A70FFF725FE01E019
:10DF8000FFF7FCFE201C0CBC90469946F8BDC0462D
:10DF9000802C00206D2D0020702D0020082170B5F0
:10DFA0000C1C244A82B013681C4009D08B431360B8
:10DFB000214B224A1B789B009B58984702B070BDAA
:10DFC0001F4D2B789800C3189B00EE183179042957
:10DFD0002AD0F268736950008218301C194E9200E2
:10DFE00036680C300096184E96590022B047012032
:10DFF0002A7893009B189B00EB181C71DC80D8607A
:10E000001C615C611C816B780132013BD2B26B7088
:10E010000A2A06D02A7000220C4B1A70FFF7D4FD92
:10E02000CCE700232B70F6E70122084B1A70FFF7AC
:10E03000CBFDC3E7682D00206C2D0020400D0200B1
:10E04000802C0020702D0020542D00206D2D0020EC
:10E0500030B5244B83B05869431C3ED080235B0508
:10E0600019690904090C01F08BFF041C80235B056E
:10E070001869196900041A69000C631E58431A4B89
:10E0800009041B68090C92B292085943FFF768FD16
:10E09000021E06D0112806D10823144A11680B432A
:10E0A000136003B030BD12490B789800C01880008F
:10E0B0000D18281CEB6829795C00E4186B690D4D7C
:10E0C000A4002D680C3000950B4D6459A047042224
:10E0D0000A4B1A70FFF778FDE3E780235B055C6964
:10E0E000C4E7C046001000107C2D0020682D0020E1
:10E0F000802C0020702D0020542D00206D2D00203C
:10E10000802230B55205146921492404230C0C687F
:10E1100083B0013C5C431F4B5869431C35D01169E7
:10E120000904090C01F02CFF80235B0519691A4BC7
:10E1300009040138090C41431A68201CFFF710FD3F
:10E14000021E06D0112806D10823144A11680B4379
:10E15000136003B030BD12490B789800C0188000DE
:10E160000D18281CEB6829795C00E4186B690D4DCB
:10E17000A4002D680C3000950B4D6459A047042273
:10E180000A4B1A70FFF720FDE3E75069CCE7C04661
:10E190007C2D002000100010782D0020682D00201C
:10E1A000802C0020702D0020542D00206D2D00208B
:10E1B000082330B51E4D83B02C68234214D1A30729
:10E1C00002D501231C432C6002221A4B1A701A4BF1
:10E1D0001868FFF7C7FC021E04D011280DD10823D0
:10E1E0001C432C6003B030BD9C43124B134A1B7878
:10E1F0002C609B009B589847F4E711490B789800D6
:10E20000C01880000D18281CEB6829795C00E41800
:10E210006B690C4DA4002D680C3000950A4D6459B3
:10E22000A0470422094B1A70FFF7CEFCDAE7C0467C
:10E23000682D00206C2D00207C2D0020400D020058
:10E24000802C0020702D0020542D00206D2D0020EA
:10E25000F0B58027274C7F05237839699A00D318B9
:10E260009B00E3181A89DD881B69AD18ED180904B5
:10E2700083B0090C281C01F009FF1F4B0E1C5869C4
:10E28000431C35D039690904090C01F079FE80235B
:10E290005B05196901380904090C4143174B8919B9
:10E2A0001A68281CFFF75CFC021E06D0112806D154
:10E2B0000823134A11680B43136003B0F0BD2378A1
:10E2C0009800C01880002618301C0E4CF368246893
:10E2D0005D003179ED18736900940B4CAD000C3082
:10E2E0002C59A0470422094B1A70FFF76DFCE4E794
:10E2F0007869CCE7802C002000100010502D002001
:10E30000682D0020702D0020542D00206D2D002040
:10E3100030B5154B83B01868FFF724FC021E06D0F9
:10E32000112806D10823114A11680B43136003B06A
:10E3300030BD0F490B789800C01880000D18281CBC
:10E34000EB6829795C00E4186B690A4DA4002D681C
:10E350000C300095084D6459A0470422074B1A70F1
:10E36000FFF732FCE3E7C0467C2D0020682D00203B
:10E37000802C0020702D0020542D00206D2D0020B9
:10E38000082370B52A4D82B02C68234209D09C43E3
:10E39000284B294A1B782C609B009B58984702B059
:10E3A00070BD0122234B1A70244B5869431C3BD08B
:10E3B00080235B0519690904090C01F0E1FD061CC5
:10E3C00080235B051869196900041A69000C731E23
:10E3D00058431B4B09041B68090C92B2920859431D
:10E3E000FFF7BEFB021EDAD0112803D108231C431D
:10E3F0002C60D4E713490B789800C01880000D18E2
:10E40000281CEB6829795C00E4186B690E4DA400A8
:10E410002D680C3000950D4D6459A04704220C4B1B
:10E420001A70FFF7D1FBBAE780235B055E69C7E787
:10E43000682D00206C2D0020400D020000100010FF
:10E440007C2D0020802C0020702D0020542D0020D9
:10E450006D2D002030B5224B83B05869431C3AD053
:10E4600080235B0519690904090C01F089FD031C6F
:10E4700080225205106911690004013B000C090457
:10E480005843090C01F07CFDFFF76CFB021E06D01F
:10E49000112806D10823134A11680B43136003B0F7
:10E4A00030BD11490B789800C01880000D18281C49
:10E4B000EB6829795C00E4186B690C4DA4002D68A9
:10E4C0000C3000950A4D6459A0470422094B1A707C
:10E4D000FFF77AFBE3E780235B055B69C8E7C0468B
:10E4E00000100010682D0020802C0020702D0020CE
:10E4F000542D00206D2D0020F0B58027404D7F0564
:10E500002C783969A60033199B00EB18DA8889B298
:10E5100083B08A4218D8196918898C4692086044D9
:10E520005969FFF71DFB021E06D011282DD10823C3
:10E53000344A11680B4313603419A4002C19E28883
:10E54000314B1A6003B0F0BD196938698C4600047C
:10E55000000C121A18893C6959696044801889189E
:10E56000A2B29208FFF7FCFA021E06D0112827D1AA
:10E570000823244A11680B43136080235B051B6941
:10E58000214A1B041B0C1360DCE72B789800C01891
:10E5900080002918CB68081C5F00FF180B79BF00AA
:10E5A0009C464B6919490C300968009118497F58FD
:10E5B0006146B8470422174B1A70FFF705FBBBE70B
:10E5C0002B789800C01880002E18301C0F4DF3686F
:10E5D0002D685C003179E418736900950C4DA40036
:10E5E0000C306459A04704220A4B1A70FFF7ECFA6A
:10E5F00080235B051B69044A1B041B0C1360A1E705
:10E60000802C0020682D00204C2D0020702D002033
:10E61000542D00206D2D00200823F0B54D464446B2
:10E620005F4656461A1CF0B4774D85B02C682240E0
:10E6300091465FD1754F3E78B30003939B199B00C1
:10E64000FB181A69511EDA881B898A18D31802939D
:10E6500080235B059B4619696D4B1B689846002B10
:10E6600057D16C4B1B689A4680235B051969029849
:10E670000904090C01F084FC824500D285E0434680
:10E6800000D17AE0002B00D079E0039B9C466644E1
:10E69000B600BC192179042900D1AFE0201CE36841
:10E6A0000C305A00D21863695B4C920024680094C5
:10E6B0005A4C14590022A047414601203A78930051
:10E6C0009B189B00FB181971D86041464046D980C1
:10E6D0001861586118817B780132013BD2B27B709E
:10E6E0000A2A00D17BE03A7000224D4B1A70FFF7E6
:10E6F0006BFA07E09C434B4B4B4A1B782C609B000A
:10E700009B58984705B03CBC90469946A246AB46FC
:10E71000F0BD404B09041B68090C02989A4601F0B1
:10E720002FFC5045A0D14A46404B1A6001234A466F
:10E7300023432B603B4B1A703D4B5869431C51D00F
:10E740005B4619690904090C01F01AFC031C8022BC
:10E750005205106911690004013B000C090458437B
:10E76000090C01F00DFCFFF7FDF9021ECAD01128BB
:10E770003BD109231C432C60C4E7002B05D00322A6
:10E78000284B1A70FFF764FDBCE70022274B504668
:10E790001A60244B02321A70FFF7E4F9021EB1D05E
:10E7A000112818D03B789900CB189B00FD18E96818
:10E7B0004C006418281C29796B69174DA4002D683A
:10E7C0000C300095154D6459A0470422144B1A7063
:10E7D000FFF7FAF996E708231C432C6092E7002321
:10E7E0003B7081E75B465B69B1E73B789800C018F6
:10E7F00080003D18EB685C00E418DBE70122084B61
:10E800001A70FFF7E1F97DE7682D0020802C0020C9
:10E81000502D00207C2D0020702D0020542D002034
:10E820006D2D00206C2D0020400D0200782D002061
:10E8300000100010F0B54E46574645460823E0B498
:10E840008C4E82B03468234200D093E08A4B1A6821
:10E85000571C1F60894B1D68002D50D1884B8022AA
:10E8600099461B7852059D00ED18AB009846082389
:10E870004D469A464544AA4453469B681169581E22
:10E88000EB880904C0182B89090CC01801F078FB2B
:10E89000874200D282E07B4B00D17BE01F68002FD3
:10E8A00000D19CE001231A1C224000D08DE02343BC
:10E8B0003360754B1A70754B5869431C00D1BEE02C
:10E8C00080235B0519690904090C01F059FB031C3D
:10E8D00080225205106911690004013B000C0904F3
:10E8E0005843090C01F04CFBFFF73CF9021E49D0DC
:10E8F000112800D0A7E009231C43346042E0042122
:10E90000614B197080235B051F693F043F0C57431F
:10E910005E4A5069421C3BD019690904090C01F098
:10E920002FFB80235B05196901380904090C414359
:10E930002A1C381CFFF714F9021E23D011284AD0D4
:10E940004F4801788B005B189B00C518281CE968AC
:10E950004C006418A40029796B694D4D0C302D686A
:10E9600000954C4D6459A04704224B4B1A70FFF799
:10E970002BF907E09C43444B484A1B7834609B00CA
:10E980009B58984702B01CBC90469946A246F0BDE1
:10E990005869C6E71B68002B00D083E702223A4B78
:10E9A000381C1A70FFF7DEF8021EEBD0112812D0C7
:10E9B0004B461B789900CB1849469B00CD18E96857
:10E9C000281C4C006418A400C5E703222E4B1A70C3
:10E9D000FFF73EFCD6E708231C433460D2E72979D1
:10E9E00004293DD053464046294C5B6824685A00B0
:10E9F000D2186B690094274C920048440C3014598B
:10EA00000022A0474B4601201A78494693009B18E4
:10EA10009B004B441F71DF80D8601F615F611F81C5
:10EA20004B465B780132013BD2B24B700A2A1DD0B3
:10EA30000A700022184B1A70FFF7C6F8A2E780236D
:10EA40005B055B6944E74B461B789800C0184B4652
:10EA500080001D18EB68281C5C00E418A4007AE70D
:10EA600001220D4B1A70FFF7AFF88BE700230B70F4
:10EA7000DFE7C046682D00207C2D0020782D002087
:10EA8000802C0020502D00206C2D00200010001044
:10EA9000702D0020542D00206D2D0020400D02000F
:10EAA00070B5274C82B023789800C01880002518D4
:10EAB000281CEB6829795A00D2186B69214D920005
:10EAC0002E680C300096204E96590022B047002147
:10EAD0000126227893009B189B00E3181971D980B6
:10EAE000DE6019615961198163780132013BDBB243
:10EAF000D2B263700A2A0BD022700021134E144840
:10EB00003160144E01703160002B05D102B070BD30
:10EB1000002222700022F0E793009A189200A418B5
:10EB2000E3882B602379032B07D0042B05D0012B1E
:10EB3000ECD10370FFF748F8E8E7FFF71FF9E5E7C6
:10EB4000802C0020702D0020542D0020742D0020DA
:10EB50006D2D00204C2D0020F0B5474680B4654D4A
:10EB600004262C7882B0231CB3430ED0022810D088
:10EB700003280AD10821604A1368194258D0022C90
:10EB80004FD0032C48D0012C46D002B004BC904694
:10EB9000F0BD022C45D0032C59D0012CF5D1082111
:10EBA000554A1368194237D1544F55493B780E687E
:10EBB0009A00D3189B00FA18D1888E1BB6B2D68063
:10EBC000002E6ED1D1681379480041189846101C68
:10EBD00053694C4A890012680C3000924A4A8A589C
:10EBE000414694460022E0473A7893009B189B00E8
:10EBF000FB181E71DE80DC601E615E611E817B7809
:10EC00000132013BD2B27B700A2A66D03A700023EF
:10EC10002B70FEF7D9FFB8E78B431360FEF7D4FFE4
:10EC2000B3E73A4B3A4A1B789B009B589847ACE7AE
:10EC3000384A136801331360032B35D0022CEDD111
:10EC4000324B354A1B789B009B5898479DE708211B
:10EC5000294A13681942DFD1304B284E1A6834789C
:10EC6000571C1F6080235B051969A30098461B1978
:10EC70009B00F3181A690904501EDA881B89801852
:10EC8000C018090C01F07CF98742C7D32CD0231C93
:10EC900043449B00F3181B79042B20D0FFF700FF9F
:10ECA00073E7FFF729FC70E71448027893009B187C
:10ECB0009B00C418201CE268636951008A182179FE
:10ECC000104C920024680C3000940F4C14590D2203
:10ECD000A0472E70FEF778FF57E73E7097E70123B5
:10ECE0002B70FEF771FF50E70D4B1B68002BCED148
:10ECF00094E7C0466D2D0020682D0020802C002058
:10ED00004C2D0020702D0020542D00206C2D002053
:10ED10002C0D0200742D0020400D02007C2D0020DF
:10ED2000502D002010B500202C2400220121464B3C
:10ED300018551434185502341A5302341A53103427
:10ED4000185502341A530234D9601876196259637F
:10ED50009964D9651A705A701A71DA801A615A6109
:10ED60001A815A835A629A629A83DA859A63DA63BD
:10ED70001A86DA641A651A665A661A5310341855D8
:10ED800002341A5302341A531034185502341A53E9
:10ED90000634195104341A5104341A510C3C1A53D4
:10EDA0001034185502341A530634195104341A51C8
:10EDB00004341A510C3C1A531034185502341A53A7
:10EDC0000634195104341A5104341A510C3C1A53A4
:10EDD00010341855BA201A52063019501967C33129
:10EDE0005A5004315A500C395A525A679A67174B85
:10EDF0001A80174B5869431C22D080235B05196980
:10EE00000904090C01F0BCF880235B051B6902387A
:10EE10001B041B0C58430F4B0021186000230E4AA3
:10EE2000002013600D4A1360138153810C4A117046
:10EE30000C4A13600C4A136004220C4B1A6010BD7C
:10EE400080235B055869DFE7802C0020602D0020BF
:10EE500000100010642D00207C2D0020542D002077
:10EE60006D2D0020742D00204C2D0020682D0020D9
:10EE7000F0B557464E464546E0B4344B1A68082371
:10EE8000520705D4181C1CBC90469946A246F0BDFA
:10EE9000002857D0002955D00368002B52D0802776
:10EEA0007F053A69868892B207239642EAD80F2EE8
:10EEB000E8D9C288002AE5D0254B724399461B68E1
:10EEC000041C9846234B424458690D1C9246431C2F
:10EED0003AD039690904090C01F052F88022520530
:10EEE000136901381B041B0C584307238245C9D8FA
:10EEF000B107C7D1184F033B3E88012EC2D043460D
:10EF00006B600C232E604546734314480136C118CC
:10EF10004D6025681D50A5880D81E08848816843B3
:10EF2000136911699BB21469C018013889B2A4B27F
:10EF300001F0B6F8231C4A464343434413603E8025
:10EF400000239FE70E239DE77869C7E7682D00201F
:10EF5000642D002000100010602D0020542D002092
:10EF600030B5114B1C680823640701D4181C30BD50
:10EF7000002806D0002A04D00368002B03D0072302
:10EF8000F4E70E23F2E7094C2568002DF7D0258918
:10EF900040686943091860896468684300198142C0
:10EFA000EDD213605160E1E7682D0020542D002060
:10EFB000F0B5474680B41E4C051C246882B008207A
:10EFC000640703D402B004BC9046F0BD00292CD0E5
:10EFD000002D2AD02C680138002CF3D1154C26685E
:10EFE000002EEFD06E686789B04626897743B44615
:10EFF0006668BC19A045E5D2002AE3D09445E1D368
:10F00000D418A445DEDB09308C07DBD1032423426E
:10F01000D8D146462642D5D1181C131C00900A1C94
:10F020000120291CFEF774FFCCE70E20CAE7C0467A
:10F03000682D0020542D0020F0B5474680B41E4CAA
:10F04000051C246882B00820640703D402B004BC05
:10F050009046F0BD00292CD0002D2AD02C68013814
:10F06000002CF3D1154C2668002EEFD06E6867890E
:10F07000B04626897743B4466668BC19A045E5D2F8
:10F08000002AE3D09445E1D3D418A445DEDB09304F
:10F090008C07DBD103242342D8D146462642D5D162
:10F0A000181C131C00900A1C0420291CFEF730FFBA
:10F0B000CCE70E20CAE7C046682D0020542D002062
:10F0C000F0B54F464646C0B4254C83B025680824A9
:10F0D0006D0705D4201C03B00CBC90469946F0BDCA
:10F0E000002906D0002804D00C68002C03D0072487
:10F0F000F0E70E24EEE71B4D2E68002EF7D04E6889
:10F100002F89B4466E897E43B1466E68B0464E463E
:10F110004644B445EBD2002AE9D09742E7D3D6184B
:10F12000B742E4DB860701D01024D3E7032633423D
:10F13000FAD167463E40F7D188466344191C171C34
:10F14000814601F09FF842460C2312680097534312
:10F150004046ED580221321C4B46A847BAE7C0464C
:10F16000682D0020542D0020F0B54F464646C0B40F
:10F17000204A83B012680824530705D4201C03B02A
:10F180000CBC90469946F0BD002830D00368013C85
:10F19000002BF3D1184B1A68002AEFD01D895E8925
:10F1A0005A686E434768B618B742E7D20934BB07BE
:10F1B000E4D188468146291CB81A00F067FF093C53
:10F1C0000029DBD14046291C00F060FF89B20029EC
:10F1D000D4D14346002BD1D04744BE42CED30022E7
:10F1E000032000924946FEF793FE041CC6E70E2456
:10F1F000C4E7C046682D0020542D0020C12210B560
:10F20000604B92009A5884B092054DD55E4A1168C1
:10F21000002949D0002111608121C2228900920079
:10F2200099505A4B9A7E002A02D10121584A116006
:10F23000022269460A7090215248C9004258425041
:10F2400069460392DA7D68460A72DA6819680192A3
:10F250000022DA751A765B6898474E4A1368002BCD
:10F2600010D04A4B988A997D81424FD90021116074
:10F270009A8A9968895C9A8A013292B29A82464B3C
:10F28000404AD150454B1A68002A0BD000221A6020
:10F290003E4B9A7E002A02D001213A4A1160DA7D63
:10F2A000002A42D104B010BDC123364A9B00D35876
:10F2B0005B07D2D53A490B68002BCED0334BD87DB3
:10F2C00000283FD10860A321C90052585A7ED97D39
:10F2D0009142C2D11A7E002A41D19A7E002A02D1DF
:10F2E00001212B4A11608120C22226498000920010
:10F2F0008850002268460121DA755A7E0170027238
:10F30000DA68196801925B689847A6E700201060E8
:10F310000029B7D06A46107011729A6898751968FA
:10F3200001925B6868469847ACE700226846012175
:10F33000DA755A7E01700272DA68196801925B68A8
:10F340009847AFE700200860A320C000597E1258FC
:10F35000D86842545A7E0132D2B25A76B6E7DA758C
:10F360001A69D968DA6000226C46587E1A765A7695
:10F370000132207201912270196868465B689847D3
:10F380006BE7C0460020004024210040802D002073
:10F39000042000401C2100401C05000044210040C6
:10F3A00008210040A0DF7047A2DF7047A3DF70474D
:10F3B000A4DF7047A6DF7047F0B54D465F4656465E
:10F3C0004446F0B40E2595B0002816D0002914D07C
:10F3D0000B688946036001235B4243820A79037408
:10F3E00006A902338B70684B0275071C021D0120B1
:10F3F0000B80FFF7D7FF051E07D0281C15B03CBCBB
:10F4000090469946A246AB46F0BD3B7D002B00D00E
:10F410009EE00DAD281C00211C22FBF7F9FE022204
:10F420002B78397D1A4301239A460B401801D3B239
:10F430001022934303432B70002390464A1E9141B0
:10F440009B466B60EB602B61494204AB0B406B61E8
:10F450005B465246AB6102AB9A754C4B05AE02AAB5
:10F46000938200210322301CFBF7D2FE4B469B7B8C
:10F47000062233704B46DB7B08AC7370B3780021F7
:10F480009343043A1343DBB2063293434246934319
:10F4900052469343B3704B461B7B02AAD370201C89
:10F4A0001422FBF7B5FE07AB0893534623815B4656
:10F4B00063815346A38102AB033323616660291C39
:10F4C000B888BB1D221CFFF76FFF051E95D14B4668
:10F4D0009B68002B55D0012302AA93752C4B002169
:10F4E0009382301C0322FBF793FE4B461B7C0622C3
:10F4F000337000237370B3789343043A1343DBB241
:10F50000063293434246934352469343B37003AB50
:10F5100098464B464046996800F076FB81460021AC
:10F520001422201CFBF774FE07AB23606A464B468F
:10F53000D3804346D0883A1C658166602081A081D3
:10F540002361F8880E32211CFFF730FF051C54E7B9
:10F5500004AC00210322201CFBF75AFE0F210122DC
:10F5600023788B43134310220B40134323704B46E5
:10F5700006225B7B6370A378934302221343A3703C
:10F5800047E7F88139E7C0460F180000192A000044
:10F5900008290000F0B589B06B46041CDE1DD97146
:10F5A000002822D0027CCBB200259A421AD002AFAA
:10F5B00000210822381CFBF72BFE01237D803B80B5
:10F5C0007E60608AE1883A1CFFF7F2FE051E09D1D1
:10F5D0003378628A2374114B9A4208D0237D083510
:10F5E000002B06D1281C09B0F0BD0E25FAE708252E
:10F5F000F8E704AD281C00211022FBF709FEE38880
:10F60000291C2B800123AB707B88AF60AB807B68AB
:10F61000EB60608AFFF7CEFE051CE3E7FFFF00000A
:10F62000A0DF7047A2DF7047F0B556464D4644460E
:10F630005F46F0B491B00190894690469A46002901
:10F640004FD04346002B02D10020FCF739FD0225A4
:10F6500009AC201C00211C22FBF7DAFD237803AE45
:10F660002B43237001239B46B3706B4600279B8876
:10F6700002A80021032233806760E7602761676189
:10F68000A761FBF7C5FD53461B7802AA13705346CA
:10F690005B78002153709378062293431D43E72340
:10F6A0001D405B469D4302AB9D7004AD281C0E328D
:10F6B000FBF7AEFD02AB6B6043462B81AB814B4643
:10F6C0002B610A4B211C18882A1C1A9B04966F81F7
:10F6D000FFF7A8FF11B03CBC90469946A246AB4646
:10F6E000F0BD0020FCF7ECFCABE7C046E42D0020A9
:10F6F000F0B55F464D46564644460123F0B495B0FA
:10F7000004A98B70A14B071C0B80A14B01201A1C74
:10F710009946FFF785FF002800D0E4E03A88002AE8
:10F7200000D0E7E03A89002A00D0F1E03A8A002AC6
:10F7300000D0F9E03A8B002A00D001E13A8C002A8F
:10F7400000D009E13A8D002A00D011E13B6B002B7B
:10F750005FD01A7806AD2A700022022692465A78A7
:10F760000DAC6A709A780021AA70DA78201CEA70D1
:10F770001A792A719B681A0A6B71AA711B0C1C22D8
:10F78000EB71FBF745FD237800213343237053468B
:10F790006360E36023616361A361013398466B4654
:10F7A00042469A756A467B4B03A893820322FBF775
:10F7B0002FFD3C236A46FB5C002113733B1C3C334A
:10F7C0005B785373937B062293431E430823F6B260
:10F7D0009B469E4308339E4343469E436B469E731F
:10F7E00008AE0E32301CFBF713FD05AB089303ABDC
:10F7F00073605B463381534673815B46B3814B46EE
:10F80000211C1888321C644B3561FFF70BFF002860
:10F8100069D17B6B002B0AD019681A795F4B60485D
:10F8200000933B1C3C33FFF7FFFE00285BD1BB6B12
:10F83000002B00D1A8E01A7806AD2A705A880DACCA
:10F840006A70120AAA709A880021EA70120A2A7154
:10F85000DB881C226B71201C1B0AAB71FBF7D8FCE8
:10F86000022290464246237803AE134323700023BE
:10F870009A466360E36023616361A36101339B4641
:10F880006B465A469A756A46464B00219382301C55
:10F890000322FBF7BDFC3C23FB5C062233703B1CC0
:10F8A0003C335B7800217370B378934342461A432C
:10F8B000171CE7231F405B469F43B77008AF142215
:10F8C000381CFBF7A5FC05AB0893072352463B8188
:10F8D000BB814B467A811888211C3A1C324B7E60D2
:10F8E0003D61FFF79FFE15B03CBC90469946A2468D
:10F8F000AB46F0BD2D4B2E4800933B1C79683C3342
:10F90000FFF792FE0028EED13A89002A00D10DE7D8
:10F91000284B294800933B1CF9683C33FFF784FED1
:10F92000002800D102E7DEE7244B254800933B1C6A
:10F9300079693C33FFF778FE002800D1FAE6D2E778
:10F94000204B214800933B1CF9693C33FFF76CFEC8
:10F95000002800D1F2E6C6E71C4B1D4800933B1C73
:10F96000796A3C33FFF760FE002800D1EAE6BAE787
:10F97000184B194800933B1CF96A3C33FFF754FEBF
:10F98000002800D1E2E6AEE70020ACE70A1800004C
:10F99000E42D0020232A0000AC2D0020BC2D0020E7
:10F9A0002A2A0000502A0000C42D0020B42D002077
:10F9B000292A0000A42D0020242A0000D42D002094
:10F9C000252A0000CC2D0020272A0000DC2D002055
:10F9D000262A00009C2D0020282A000075DF704791
:10F9E00076DF70477ADF70477BDF704710B5184BC2
:10F9F00082B01888174B984214D0174A174C1378C6
:10FA00000133DBB21370217B99420DD200231370B6
:10FA1000237C002B12D16369002B03D0002201A8A4
:10FA20000270984702B010BD0D49FFF7D7FF0028BC
:10FA3000F8D0A369002BF5D09847F3E73B21FFF7F7
:10FA4000CFFF0028E7D0A369002BE4D09847E2E776
:10FA5000302E0020FFFF0000F02D0020F42D0020AC
:10FA6000342E002030B51B4B1B4A5B88118883B0B5
:10FA700099420FD852889A420CD3184B5B69002BDD
:10FA800003D0012201A802709847154C002323706F
:10FA900003B030BD124C2378002B08D00F4B5B69AC
:10FAA000002BF3D0002201A802709847EEE70D4B1F
:10FAB0000A4D1B78002B0BD0A9680B480022FCF7DD
:10FAC00077FE0028E2D0AB69002BDFD09847DDE756
:10FAD0006968F2E7E82D0020342E0020F42D002084
:10FAE000E62D0020F02D0020102E0020164938B5FC
:10FAF000021C0B1C32CA32C332CA32C312681A60EB
:10FB00000022124B01681A70002916D0104C0832DE
:10FB1000201C00F0B7FB201CFFF764FF00280BD16E
:10FB200001220C4B52421A8000220B4B0B481A70D8
:10FB300000210B4AFCF722FE38BD0548FFF754FFB1
:10FB40000028EDD0F8E7C046F42D0020E62D002077
:10FB5000342E0020302E0020F02D0020540D020005
:10FB6000EDF9010010B50388112B31D01FD9122BEC
:10FB700016D0502B1AD11F4CC288E3899A4215D156
:10FB8000038A022B12D1837CDB070DD41A48FCF7C1
:10FB90008BFE00280AD0A369002B07D0984705E008
:10FBA000164B083006C806C3FFF75CFF10BD102BCC
:10FBB000FCD18288124B18301A80104B06C806C33D
:10FBC0000022104B1A700B4BDB89002BEED1EBE7B8
:10FBD00001220B4B52421A8000220A4B06481A702F
:10FBE000FCF762FE0028E1D0024B9B69002BDDD0C0
:10FBF0009847DBE7F42D0020102E0020E82D002090
:10FC0000302E0020F02D00200B7803704B784370CD
:10FC10000220704738B5041C081C0D1C00F05EFB68
:10FC20006560208038BDC046304B1B78012B00D06A
:10FC300070472F4B1B681B07FAD1F0222D4B1B6816
:10FC4000134027D12C4B1B68134229D0284B1B682B
:10FC50001B07EDD1F022274B1B681340402B32D0FD
:10FC6000244B1A68F0231340A02B01D0D02BDFD1F6
:10FC7000214B1A68F0231A42DAD1204A1368012B6B
:10FC800004D01F4B13601368012BFCD1C0221D4B05
:10FC90001A60CDE7102B0FD1174B1B681342D9D137
:10FCA000194A1A4B1A608022194B12021A600F4B24
:10FCB0001B78012BCAD0BBE7302BCBD10E4B1B6876
:10FCC0001342C7D1ECE70C4B1B681342C8D1C123C8
:10FCD00080220121DB00D205D150044B1B78012B7F
:10FCE000A6D1034B1B681B07BAD0A1E7E00F00F0B9
:10FCF000E40F00F0E80F00F0EC0F00F000EC06401D
:10FD00007593000014EC0640DFFF07C004050040B7
:10FD1000186C004052DF704710DF704760DF70479B
:10FD200061DF704708B5FCF7DBF908BDF0B54F4659
:10FD30004646C0B42E4B2F4E1C68984663425C4129
:10FD40000025B1462C4F83B0E4B2002D07D0002C23
:10FD500022D003B00CBC90469946F0BD012401A806
:10FD6000FFF7D8FF052832D0002826D0FCF7A8F9E5
:10FD7000002CF3D16A461F4B01A91B8893801E4BB0
:10FD80001C68201CFFF7CCFF0528E7D000280ED008
:10FD9000FCF796F90024D8E73C68338801A9201CB9
:10FDA0000B80FFF7BDFF0528D3D00028F0D14346D4
:10FDB000201C1B6898470024C7E70198FDF706F848
:10FDC0000E4B1B68002BD3D001989847D0E7002C2E
:10FDD000BFD14B466A461B8801A99380064B01257B
:10FDE0001C68201CFFF79CFF0528CFD1B1E7C04657
:10FDF000482E00203E2E0020402E0020442E0020C1
:10FE000038B5041C0720002901D08D0700D038BD6B
:10FE1000124801601249201C0A80124A12491360DC
:10FE2000FFF77AFF0028F2D10122104B1A70C52289
:10FE30000F4B92009A58520207D50E4A506800287C
:10FE400005D18022D2031A60E1E70B48DFE7802169
:10FE50001368C9030B4313600020D8E7402E00202D
:10FE60003E2E00204C2E002025FD01003C2E0020BF
:10FE700000E100E0B02E002002200000002803D0A6
:10FE8000024B1860002070470E20FCE7482E00202F
:10FE9000002803D0024B1860002070470E20FCE7BA
:10FEA000442E002008B5094B1B68002B06D098474C
:10FEB000002800D108BDFCF703F9FBE7044B1B78D1
:10FEC000002BF7D0FFF732FFF4E7C0464C2E00209E
:10FED0003C2E002070B5141C051C0E1C101C0021AB
:10FEE0001422FBF795F9002301222361237B228052
:10FEF0009343237326726572002D01D00123A372F0
:10FF0000002070BD0020034B82B00193019B02B022
:10FF10007047C0460028002000B5054B83B0019310
:10FF2000019B69460093FFF7F9FE03B000BDC04690
:10FF30000028002003210A4802680A430260094899
:10FF400002680A4302600849084A094B9B1A03DD0C
:10FF5000043BC858D050FBDCFFF766FEFBF7E0F827
:10FF60002405004054050040980D020000280020A0
:10FF70009C280020FEE7FEE7FEE7FEE7FEE7FEE73F
:10FF8000002243088B4274D303098B425FD3030AD8
:10FF90008B4244D3030B8B4228D3030C8B420DD3EB
:10FFA000FF22090212BA030C8B4202D31212090279
:10FFB00065D0030B8B4219D300E0090AC30B8B42B7
:10FFC00001D3CB03C01A5241830B8B4201D38B0365
:10FFD000C01A5241430B8B4201D34B03C01A52410A
:10FFE000030B8B4201D30B03C01A5241C30A8B424D
:10FFF00001D3CB02C01A5241830A8B4201D38B0238
:020000022000DC
:10000000C01A5241430A8B4201D34B02C01A5241DB
:10001000030A8B4201D30B02C01A5241CDD2C3094D
:100020008B4201D3CB01C01A524183098B4201D3C9
:100030008B01C01A524143098B4201D34B01C01AB4
:10004000524103098B4201D30B01C01A5241C3082C
:100050008B4201D3CB00C01A524183088B4201D39B
:100060008B00C01A524143088B4201D34B00C01A87
:100070005241411A00D20146524110467047FFE7F3
:1000800001B5002000F0FCF802BDC0460029F7D001
:1000900003B5FFF775FF0EBC4243891A1847C046E7
:1000A00003460B437FD4002243088B4274D30309D9
:1000B0008B425FD3030A8B4244D3030B8B4228D37A
:1000C000030C8B420DD3FF22090212BA030C8B42A0
:1000D00002D31212090265D0030B8B4219D300E040
:1000E000090AC30B8B4201D3CB03C01A5241830BC5
:1000F0008B4201D38B03C01A5241430B8B4201D375
:100100004B03C01A5241030B8B4201D30B03C01A9D
:100110005241C30A8B4201D3CB02C01A5241830A17
:100120008B4201D38B02C01A5241430A8B4201D346
:100130004B02C01A5241030A8B4201D30B02C01A70
:100140005241CDD2C3098B4201D3CB01C01A5241D7
:1001500083098B4201D38B01C01A524143098B4260
:1001600001D34B01C01A524103098B4201D30B0149
:10017000C01A5241C3088B4201D3CB00C01A52416E
:1001800083088B4201D38B00C01A524143088B4233
:1001900001D34B00C01A5241411A00D201465241CC
:1001A000104670475DE0CA0F00D04942031000D3EB
:1001B0004042534000229C4603098B422DD3030A40
:1001C0008B4212D3FC22890112BA030A8B420CD350
:1001D000890192118B4208D3890192118B4204D379
:1001E00089013AD0921100E08909C3098B4201D3F9
:1001F000CB01C01A524183098B4201D38B01C01A33
:10020000524143098B4201D34B01C01A52410309A9
:100210008B4201D30B01C01A5241C3088B4201D358
:10022000CB00C01A524183088B4201D38B00C01A05
:100230005241D9D243088B4201D34B00C01A5241DC
:10024000411A00D20146634652415B10104601D369
:100250004042002B00D54942704763465B1000D3F3
:10026000404201B5002000F00BF802BD0029F8D093
:1002700003B5FFF715FF0EBC4243891A1847C04665
:100280007047C046002310B5934203D0CC5CC454E1
:100290000133F9E710BD00000EB410B59DB002A9FE
:1002A000029008610B488224886048610120404226
:1002B0001FABC881084804CBA400006801938C815F
:1002C00000F074F80023029A13701DB010BC08BC33
:1002D00003B01847FFFFFF7F602800200023C25CA7
:1002E0000133002AFBD1581E70470000F0B58E681C
:1002F00085B0071C0C1C03920193B34245D3902395
:100300008A89DB001A423DD00325096923680198D8
:100310005B1A029363695D43EB0F5D19029B6D10DD
:1003200001331B189D4200D21D1C381C53050FD5EC
:10033000291C00F01DFB061E13D0029A2169FFF74D
:10034000A1FFA289184B134080221343A38111E01F
:100350002A1C00F065FB061E0CD1381C216900F038
:10036000C1FA0C23402201203B60A3894042134381
:10037000A38117E0029B2661F61826606561019E45
:10038000ED1AA560019BB34200D2019E321C206889
:10039000039900F092FA0020A3689B1BA3602368D6
:1003A0009E19266005B0F0BD7FFBFFFFF0B59FB042
:1003B000029005938B890E1C171C1B0610D50B6928
:1003C000002B0DD1402100F0D3FA306030610028BD
:1003D00004D10C23029A01381360D0E040237361EA
:1003E000002306AD6B6120336B761033AB763C1C7B
:1003F0002378002B03D1E31B049312D003E0252BB9
:10040000F9D00134F4E7049B0298311C3A1CFFF741
:100410006DFF431C00D1ACE06A69049B94466344C1
:100420006B612378002B00D1A3E00122002352420C
:100430006A6002A95432521801342B60EB60AB6041
:100440001370AB654F4F2178381C052200F02AFA53
:10045000002808D0C01B01278740381C2B680134B6
:1004600018432860EEE72B68DA0604D553222021D2
:1004700002A8121811701A0704D553222B2102A8C2
:100480001218117022782A2A01D0099B0EE0059AD1
:10049000111D12680591002A01DB099204E0524205
:1004A000EA60022213432B60013409E02278303ADB
:1004B000092A04D80A214B4301349B18F6E7099313
:1004C00023782E2B18D163782A2B09D1059B02346F
:1004D0001A1D1B680592002B0DDA01235B420AE00E
:1004E000002301342278303A092A04D80A214B43E8
:1004F00001349B18F6E70793234F2178381C032219
:1005000000F0D0F9002807D0C01B40278740381CD6
:100510002B6801341843286021781C480622671C88
:10052000297600F0BFF9002812D0194B002B06D114
:100530000722059B073393430833059314E005AB6B
:1005400000930298291C321C124B00E000BF07E008
:1005500005AB00930298291C321C0E4B00F08AF860
:100560000390039B013304D06B69039A9B186B6162
:100570003DE7B3890B985B0601D5012040421FB0CF
:10058000F0BDC046580D02005E0D0200620D020073
:1005900000000000ED020200F7B5171C01930A6984
:1005A0008B6800900C1C934200DA131C221C3B60E9
:1005B00043321278002A01D001333B6023689B0646
:1005C00002D53B6802333B60062523681D401ED0E0
:1005D000231C43331B785A1E9341226892061CD574
:1005E0003020E1184031C870211C5A1C453109786F
:1005F000A21840320233D1700FE0221C0123009870
:1006000001991932089EB047431C0ED00135E368AA
:100610003A689B1A9D42F0DBDAE7221C00980199A8
:100620004332089DA847431C02D10120404220E0EC
:1006300006232068E1683A6803400025042B03D1B3
:100640008D1AEB43DB171D40A3682269934201DD3D
:100650009B1AED180027AF420ADA221C01230098EA
:1006600001991A32089EB047431CDED00137F2E7E9
:100670000020FEBDF0B58BB006920A1C43320793F2
:10068000059004920A7E0C1C109B6E2A00D1A8E0F3
:1006900011D8632A22D009D8002A00D1B2E0582A02
:1006A00000D0C2E045310A707C4A4FE0642A1DD078
:1006B000692A1BD0B9E0732A00D1A7E009D86F2AB4
:1006C00029D0702A00D0B0E0202209680A432260B5
:1006D00037E0752A1FD0782A33D0A6E00E1C1A689E
:1006E0004236111D196013683370A1E021681A6841
:1006F000080606D4490604D5111D19600023D55EED
:1007000002E0111D19601568002D3BDA2D23049AB3
:100710006D42137036E021681A68080606D449064F
:1007200004D51568111D1960ADB202E0111D1960E4
:1007300015685A4B227E03930A276F2A1DD108277A
:100740001BE0221C782145321170554A196803922A
:10075000081D226818600D68100602D4500600D5E6
:10076000ADB2D30702D520231A4322601027002DF3
:1007700003D1202322689A432260231C00224333A2
:100780001A7002E00A27454B03936368A360002BAD
:1007900003DB0422216891432160002D02D1049ED5
:1007A000002B0ED0049E281C391CFFF76FFC039B06
:1007B000013E5B5C281C3370391CFFF7E1FB051E12
:1007C000F1D1082F09D12368DB0706D563682269B8
:1007D000934202DC3023013E3370049B9B1B236158
:1007E0002BE009681A68080607D4490605D5111DCB
:1007F00019601368A28A1A8004E0111D1960136839
:1008000062691A600023049E236116E01A68111DB4
:10081000196016680021301C626800F043F8002857
:1008200001D0801B6060636803E0261C4236327092
:10083000012323610023049A1370079B05980093FA
:10084000211C069B09AAFFF7A7FE431C02D1012029
:10085000404221E0236905980699321C079DA8476C
:10086000431CF4D023689B0705D4099BE068984299
:1008700012DA181C10E00025E368099A9B1A9D42C1
:10088000F3DA221C0123059806991932079EB04716
:10089000431CDCD00135EFE70BB0F0BD690D020061
:1008A0007A0D0200C9B28218904204D003788B42BC
:1008B00002D00130F8E70020704710B5814208D21D
:1008C0008B18984205D29B1A013A09D3995C81543E
:1008D000FAE70023934203D0CC5CC4540133F9E718
:1008E00010BD000030B500293ED004390B68002B44
:1008F00000DAC9181D4A1368141C002B02D14B6082
:10090000116031E099420DD208680A189A4203D169
:100910001368C3180B6053684B60216024E08A425F
:1009200003D8131C5A68002AF9D11D685C198C423F
:100930000BD10968691858181960904214D11068D1
:100940005268091819605A600EE08C4202D90C23D3
:10095000036009E008680C18944203D114685268D7
:10096000001908604A60596030BDC046542E00200E
:10097000032370B5CC1C9C430834051C0C2C01D2FD
:100980000C2405E0002C03DA0C2300202B6042E04D
:100990008C42F9D3204A1368101C191C002913D06B
:1009A0000A68121B0DD40B2A02D90A608B181FE0AB
:1009B0008B4202D15A6802601BE04A685A600B1CE5
:1009C00017E00B1C4968E9E7144E3368002B03D18C
:1009D000281C00F04BF83060281C211C00F046F861
:1009E000031C421CD0D00322C61C964386420AD167
:1009F0001C60181C07210B301A1D8843821A0AD06C
:100A00005142995007E0311A281C00F02FF8431C7E
:100A1000BAD0331CECE770BD542E0020502E0020BD
:100A2000F8B5061C0C1C151C002904D1111CFFF77D
:100A30009FFF041C18E0002A03D1FFF753FF2C1C72
:100A400012E000F025F8A8420ED2301C291CFFF756
:100A50008FFF071E07D0211C2A1CFFF713FC301C38
:100A6000211CFFF73FFF3C1C201CF8BD38B50023BC
:100A7000064C051C081C236000F016F8431C03D12B
:100A80002368002B00D02B6038BDC046B82E002054
:100A90000B1F1A68101F002A04DA891804390B6822
:100AA000D018043870470000044A1368002B03D0A4
:100AB00018181060181C7047014BF9E7582E0020D9
:100AC000C02E0020F8B5C046F8BC08BC9E46704752
