:020000021000EC
:10B000000080002059D6010099D601009BD601008E
:10B010000000000000000000000000000000000030
:10B020000000000000000000000000009DD60100AC
:10B0300000000000000000009FD60100A1D6010022
:10B04000A3D60100A3D60100CDD1010069CE010035
:10B05000A3D6010000000000DDC40100A3D601005A
:10B0600085C70100A3D60100A3D60100A3D6010025
:10B07000A3D60100A3D60100A3D60100A3D60100E8
:10B08000A3D60100A9B80100A3D60100A3D60100F0
:10B0900085B90100A3D60100C9D50100A3D60100DE
:10B0A000A3D60100A3D601000000000000000000AC
:10B0B0000000000000000000000000000000000090
:10B0C00010B5064C2378002B07D1054B002B02D07E
:10B0D000044800E000BF0123237010BD9428002025
:10B0E00000000000BCD7010008B5084B002B03D0BE
:10B0F0000748084900E000BF07480368002B00D15B
:10B1000008BD064B002BFBD09847F9E70000000074
:10B11000BCD70100982800209028002000000000E3
:10B12000164B002B00D1144B9D46402292029A1AD6
:10B13000924600218B460F461348144A121A00F01B
:10B1400067F80F4B002B00D098470E4B002B00D018
:10B1500098470020002104000D000D48002802D06F
:10B160000C4800E000BF00F02DF82000290000F09E
:10B170005BF800F011F8C0460000080000800020D5
:10B180000000000000000000942800206C2C00202B
:10B190000000000000000000084B10B5041C002B4C
:10B1A00002D0002100E000BF054B1868836A002B25
:10B1B00000D09847201C00F033F8C0460000000083
:10B1C000E0D601000E4B70B500251E1C0D4CE41A94
:10B1D000A410A54204D0AB00F35898470135F8E716
:10B1E00002F070FA084B00251E1C084CE41AA4104B
:10B1F000A54204D0AB00F35898470135F8E770BD7D
:10B200008828002088280020882800208C280020FA
:10B21000031C8218934202D019700133FAE7704779
:10B22000FEE7C04648DF704738B500200521154AC3
:10B23000002300F0CBFD002801D000F0DBFAA023B2
:10B24000A3228025802480208021DB05D2000004F9
:10B250004904AD03E4039D509C5098509950103A16
:10B260009D509C509850995000F0CCF800F03CFA5A
:10B2700000F07EFAFFF7D6FF0028F9D000F0BAFA06
:10B28000F6E7C046B028002008B500281BD10E4BB9
:10B290000E481A78597812020A4302809A78D978AF
:10B2A00012020A4342801A79597912020A438280B3
:10B2B0009A79DB7912021343C380054B1B68002B7C
:10B2C00001D00421984708BD802A0020782A002058
:10B2D000A02A002008B50548054900F0BFFF002856
:10B2E00001D000F087FA012008BDC0466028002088
:10B2F0001CD7010070B5051C84B0204801F07EF811
:10B300006A461F4B694651CB51C21E4C1B68201C1C
:10B31000136005221C4B00F081FF002801D000F0D3
:10B3200069FA201C19490222002300F0CDFF0028F1
:10B3300006D1174B00201B78682B08D004B070BDD5
:10B3400000F058FA124B00201B78682BF6D12A68BF
:10B35000104B201C1A6010490522002300F0B4FF96
:10B36000002807D18021A0220C4B8903D205D1509F
:10B370000120E3E700F03EFAF4E7C046B80B000016
:10B38000E4D6010060280020882A0020FCD60100B5
:10B39000802A0020A02A00203CD701000C050000D4
:10B3A00072DF704773DF704774DF70477CDF704770
:10B3B000431E10B5041C052B00D910BDFFF7F4FF88
:10B3C000002815D10C4A0D4813781B210133DBB23C
:10B3D0000474FFF7E5FF002807D10948FFF7E2FFF3
:10B3E0000028EAD000F006FAE7E700F003FAF4E7F5
:10B3F00000F000FAE6E7C046282C0020482C002088
:10B40000EC2A0020F0B587B037490422684602F0E4
:10B4100049F9684635494822002302F097F8002888
:10B420005FD101AD002001212A1C02F0E5F80028BF
:10B4300054D12F4802F0F8F800284CD1281C02F013
:10B44000FDF8002801D000F0D5F92A4F2A491B2227
:10B45000381C02F027F9294E301C02F02CF9082381
:10B46000274C0130C2B22270311C013AA01C63701B
:10B4700002F018F92378381C0133DBB21B21221C9F
:10B48000FFF78EFF002823D100232278281C013AE1
:10B4900092B2311C2B70FFF789FF002801D000F019
:10B4A000A9F9184C1822201C0021FFF7B1FE022335
:10B4B000A02223700023201C6360237222826382F7
:10B4C000FFF770FF002801D000F094F907B0F0BD3D
:10B4D00000F090F9D8E700F08DF9AFE700F08AF9B5
:10B4E000A7E700F087F99CE764D70100A42A0020B1
:10B4F000E81F0020482C002068D701007828002091
:10B50000282C0020EC2A0020038847491AB270B585
:10B510008A423CDC45499BB25918454C89B2A1424C
:10B5200021D80122434B1A8042883F4C11B2A142DC
:10B5300035DC3E4C92B214193D4DA4B2AC4244D914
:10B540003D4C3E4E1419A4B2B44254D93C4CA446CE
:10B55000624492B2AA4261D93A4A914221DA022265
:10B5600052425A801DE03449344D591889B2A942DB
:10B5700044D933498C4663449BB2A34242D9314BF0
:10B580009A424FDA02222B4B52421A80CCE7022217
:10B59000284B254C1A80428811B2A142C9DD0222F3
:10B5A0005A808288204C11B2A14204DD02229A8086
:10B5B000C288DA8070BD1D4C92B214191C4DA4B221
:10B5C000AC4205D801229A80F2E701225A80E8E7CE
:10B5D000194C1A4E1419A4B2B44209D9184CA446F5
:10B5E000624492B2AA4212D8012252429A80DFE704
:10B5F00000229A80DCE700225A80D2E700220D4B1D
:10B600001A8091E701220B4B52421A808CE70D4AB7
:10B610009142CDDA022252429A80C9E70122524277
:10B620005A80BEE7034B7FE730380000CFE7FFFFCB
:10B630009E0F0000242B00202F1800005E30000019
:10B64000CF270000D0C7FFFFA02238B5204BD2057E
:10B65000D15880239B031C1CA1200B408C431D4907
:10B66000C000145053501C4A0021535E012B20D0BF
:10B67000013322D01024022300200225515F01292A
:10B6800002D04B1C21D0031C0421525E012A0CD095
:10B69000013216D0013BDBB21F2B05D80F4AD05C1C
:10B6A000002801D0FFF784FE38BD04221343DBB22B
:10B6B000F0E7112403230120DFE718240A230820E0
:10B6C000DBE720221343DBB2E4E7231CDCE7C046C0
:10B6D000040500000C050000242B002088D7010081
:10B6E00008B5FFF7F7FD08BD00B5194B83B001A8F9
:10B6F0000193FFF7FFFD002801D103B000BD1548FD
:10B700000121154A00F0D4FB00281ED11348012165
:10B71000134A00F0CDFB002814D180211148090202
:10B72000002200F0DFFB002809D10F480F4900225A
:10B7300000F0D8FB0028E0D000F05CF8DDE700F076
:10B7400059F8F2E700F056F8E7E700F053F8DDE7C4
:10B7500009B50100A8D70100E1B6010084D70100B6
:10B7600049B601002C2B0020042B00200100010011
:10B770001E4B1A8811B200292EDD8020A0211C4A00
:10B78000C003C90588505A8811B200291ADD8020EB
:10B79000A021174A0004C90588509B881AB2002AC4
:10B7A00006DD8021A022124B4904D205D1507047FA
:10B7B000002BFCD08021A123A0224904DB00D2056C
:10B7C000D150F4E7002AE8D08020A122A021000473
:10B7D000D200C9058850E0E7002AD4D08020A122F9
:10B7E000A021C003D200C9058850CCE7242B00203B
:10B7F0000C050000002300B585B001AA906000216F
:10B8000003481380536000F005F805B000BDC04642
:10B8100001400000BFF34F8F034A044BDA60BFF3CF
:10B820004F8FC046FDE7C0460400FA0500ED00E07A
:10B8300080218023184A8902D1508022D221174BBF
:10B84000520289005A5040395A5001222F205A6022
:10B850000138C046C046C046C046C046C046C04685
:10B86000C046C046C046C046C046F1D19A600023DB
:10B870000B4A2F2013600138C046C046C046C04660
:10B88000C046C046C046C046C046C046C046C04688
:10B89000F1D1044A1370704700E100E0001001404C
:10B8A0004C2B00206C2B0020A021F0B50023474634
:10B8B0002B4A490080B45350043153500431535043
:10B8C000043153504C39535004315350254B1B68AD
:10B8D000002B35D02449002652582449244F0C68A7
:10B8E000141B00222402240A904602E0002D18D0E6
:10B8F0002B1C1A68A24214D8A41AB6181A7CDD6947
:10B90000002AF3D0424699691A745A693B68002BA1
:10B9100019D0101C98470028E8D0FFF76BFF002DC6
:10B92000E6D1144B14491A780B789A420ED0134A78
:10B930009B009E5080218023114A49035B00D15017
:10B9400004BC9046F0BD081C9047CFE70132D3B24B
:10B95000022B01D00B70EAE700230B70E7E7C0462B
:10B9600000100140502B0020040500004C2B00204B
:10B97000542B0020602B0020612B0020642B002022
:10B9800000E100E0F0B55F4656464D464446F0B44F
:10B99000B44BB54A1B68B54989B00193097813784F
:10B9A000994200D1B1E10133DBB2022B00D1002377
:10B9B0001370AF4A9B009B58AA4A9946019B4B447F
:10B9C0001B021B0A136001230493AA4B00241B686B
:10B9D0009B46A94BD8461B781A1C0293A74B94464A
:10B9E00007931B6803939F4B1B680693A44B1B781C
:10B9F00005935B466646013EF2B29446FF2A4FD05D
:10BA00006246D000039A9246504401784578A94294
:10BA1000F0D04A005218877801314668C9B27F1ABF
:10BA2000B2467E1EB741D2007F4252443940177859
:10BA3000022F0AD0032FEAD1002BE8D01C74DB6957
:10BA4000002BFBD145789846E1E75668002B25D0BE
:10BA50009E421AD01F1C00E0171CFA69002AD6D09B
:10BA60009642F9D1321C3D1CBE4200D1EBE0176872
:10BA7000D269EA61002A06D013689A4657441760D3
:10BA800045784346C3E74578C1E7DE691A1C002EB6
:10BA900000D1DDE0B046331C151CE8E70023B6E713
:10BAA0006946774A097D181C11706E4A06990393FE
:10BAB000116041466F4A1160049A002A00D028E1C3
:10BAC0005B461B1A5A1E93410025DBB20493079B69
:10BAD00000271B68039E0693624B1B689C46654BC0
:10BAE0001B689A46664B1B780593664B01930123AE
:10BAF0009846029B013BDBB20293FF2B00D18FE003
:10BB0000069ADB0093469B44002D27D06968AB68FA
:10BB1000281CED696246019C8A1A1202120AA2428E
:10BB200050D8D31842460360476087600274C761EB
:10BB3000002E56D03168341C994204D35FE011685E
:10BB4000994263D2141CE2695B1A002AF7D10360A0
:10BB5000331CC261E0611E1C002DD7D15B465A46E2
:10BB60001B7852789A42C4D0594649685A0089468F
:10BB70005946D2180133DBB20B708978D2004A449F
:10BB800099424AD011785068331C0129E3D1037CD3
:10BB900099464946331C0029DDD191684160D3683C
:10BBA00083601469C46052698261059A002AB1D029
:10BBB0004A46002142606246019C8A1A1202120A19
:10BBC000A242AED96246511A0902090A99420CD220
:10BBD00042465B1A0360476087600274C761002EAB
:10BBE000A8D1031C82461E1CB6E743460760476087
:10BBF00087600374C761002EF3D000233168CB1A2D
:10BC00003360031CC66182461E1CA5E7C91A116079
:10BC10000360C261331CE0619DE75B461D70B1E7C4
:10BC20005246144B1A60039BB3422FD1049B002B46
:10BC30002CD10023124A137009B03CBC904699469F
:10BC4000A246AB46F0BDDE693A1C002E00D021E7CB
:10BC500001250D4B9D600023069601369846151C64
:10BC6000059604E74C2B0020602B0020612B002060
:10BC7000642B0020502B0020582B00205C2B002030
:10BC8000622B0020FEFF7F0000100140002E63D0D9
:10BC9000484B49493568CC58484B494E1B68307869
:10BCA000E21A1202120A03329046002861D042467C
:10BCB000AA4200D22A1CA820D21812023E49130A16
:10BCC000C0003C4D0B504A591B1B121B1202120A9A
:10BCD0001B0203321B0A9A42ABD94B590B502F203F
:10BCE0000138C046C046C046C046C046C046C046F1
:10BCF000C046C046C046C046C046F1D18021802320
:10BD0000304A89025B00D15093E70023994604939F
:10BD10005BE60025002100244846464613E01A68E9
:10BD200082421CD8DE68801A89181C60DF69002EE8
:10BD300007D0DD611D1C019A9E608A181202120A4A
:10BD40005A603B1C3E1C002BE9D11F4B1E60002398
:10BD5000039301330493BAE6FFF76AFD69E781466E
:10BD6000194903930E604946521A1A60012304933D
:10BD7000ADE68020D1274002BF00C851403FC851E6
:10BD8000C02280270F48BF0252008750076001275A
:10BD90002F200F600138C046C046C046C046C0468E
:10BDA000C046C046C046C046C046C046C046F1D1A7
:10BDB00037707CE704050000001001404C2B002088
:10BDC0006C2B002000E100E0502B0020F8B54F461E
:10BDD0004646C0B40326351C80460F1C141C9946E9
:10BDE00015400720002D03D00CBC90469946F8BDA5
:10BDF000002A44D0FFF71CFD4A46224B80201A60DF
:10BE0000221C214B18321E70204B62601C607B008C
:10BE1000DB19DB00D218E260D318C0226361257001
:10BE20006570A77025726572A77225746574A77412
:10BE3000C524FF21164B40031D60164B52001D7098
:10BE4000154BA4001D70154B98501A598A433F3961
:10BE50000A431A51A122186040461149D200885065
:10BE6000C42080001C580F4A2240C02424022243D0
:10BE70001A500D4B0020CA580C4B1A60B4E7034B04
:10BE80001A60B1E7542B0020582B00205C2B0020B7
:10BE9000502B0020602B0020612B002000E100E0EF
:10BEA00000100140FF00FFFF040500004C2B0020A4
:10BEB00010B50B4B1B68002B0BD0002A07D00028B5
:10BEC00005D0036808201C7C002C04D010BD07207E
:10BED000FCE70820FAE759745A610020F6E7C046EB
:10BEE0005C2B0020F0B5474680B4374B1C68002C13
:10BEF00008D0002806D00723042905D8181C04BC44
:10BF00009046F0BD0823F9E74369002BFAD00025DD
:10BF1000437CA846012B2FD0EFF30583DB05DB0D17
:10BF20001025002B2CD164196378A5785E1CF6B21D
:10BF3000AD1B6F1EBD416D422E402578B5421DD010
:10BF40005D00EB186568DB00ED180423002DD5D0EB
:10BF5000033B2B7068601D4B1D48C358E960AB6004
:10BF6000434680212B6180236A611A4A5B004903A2
:10BF70006670D1500023C1E78846CDE70423BDE7B2
:10BF8000103BDEB275B2002D13DBAD08114EC0358B
:10BF9000AD00AD5903263340DB00DD402B069B0F7F
:10BFA000DBB20025012BBED00835032BBBD00835F2
:10BFB000B9E70F23084D3340AC46083B9B089B0074
:10BFC00063445D680323E6E75C2B00200405000062
:10BFD0000010014000E100E018ED00E00023C0B2D5
:10BFE00088724B727047C046F0B556464D4644467F
:10BFF0005F460023F0B485B001AD041C281C0E1C64
:10C000002B7000F0C5F9002E02D1E368002B0DD192
:10C01000032398466379A279DBB200270126934275
:10C020002AD10023E360E368002B37D1287800F0A1
:10C03000CFF905B03CBC90469946A246AB46F0BD50
:10C04000597931402970AF60EF709A7932405201CE
:10C05000201C291C103000F031FE0028E9D0E368D4
:10C060001B68002B5BD1281C2B7000F091F96379C1
:10C07000A279DBB29342D4D021689A008C46013376
:10C0800020796244DBB212680021984200D3191C67
:10C09000131C6171E360E368002BC7D0287800F0BF
:10C0A00097F92772227AE368D2B2D1008B469B6857
:10C0B0005B44597949086970196869601979A970F0
:10C0C00099790E42BCD059798C46314025D1013244
:10C0D0009146E068027B9145B4DA08208146E26827
:10C0E000D94492684A4450796246400852088242D4
:10C0F000A8D14246E368986848440368AB60037976
:10C10000EB7043793340D31A2B70237A8279013351
:10C110003240DBB2520123729AE7012192E7E268D2
:10C12000E36851681B689847281C2F7000F030F9AD
:10C130009DE7C046F0B5474680B4037884B00C1C38
:10C14000002B18D10B7ACA680133127BDBB20020B6
:10C150009A4212D8E3681B68002B04D0E268E368B7
:10C1600051681B689847201C0121FFF73DFF04B070
:10C1700004BC9046F0BD0320ECE70B72087ACB6854
:10C18000C0B29B68C6009B195A7901A952084A702F
:10C190001A684A601A798A7001229D792A4229D048
:10C1A0005D79A846151C47463D4034D1E76801300B
:10C1B0003F7BB84220DA4746E068083680687F084F
:10C1C000801940794008874216D1E3689B689E1920
:10C1D00033688B603379CB7073791340181C032359
:10C1E0001B1A0B70B3791A40237A52010133DBB268
:10C1F000237209E05D79154000220D708A60CA70D3
:10C200009B7901321A405201201C103000F056FD7B
:10C2100000289FD1ABE70125EEE7C046F0B5061C2C
:10C220004746041C103680B49846171C301C0A4A36
:10C23000231C00F041FC051E09D1301C00F02CFD30
:10C24000434665712360A57127716572E560281CFE
:10C2500004BC9046F0BDC04635C1010030B583B086
:10C260006A46041C0023D01DD3710D1C00F090F809
:10C27000A3792279DBB29A421CD06279013A9342C7
:10C280001BD021689A008C466244156001332179E5
:10C29000DBB2002299420BD26B46A271D87900F032
:10C2A00097F8201C0021FFF79FFE002003B030BD4F
:10C2B0001A1CF1E76279002ADFD16B46D87900F0C9
:10C2C00087F81120F2E7C046F0B54F464646041CF9
:10C2D000C0B41F1C002387B002AD281C89469046BD
:10C2E0002B7000F055F8667AF6B2002E36D1012395
:10C2F0002878637200F06CF8244B6C6002934B4614
:10C30000AB6043462B736B46D81DDE7100F040F8DE
:10C31000A3792279DBB29A422ED06279013A934214
:10C320002DD021689A008C46624415600133217932
:10C33000DBB20022994200D31A1C6B46A271D87955
:10C3400000F046F8201C0021FFF74EFE002F0ED112
:10C35000637A002BFCD1A07AC0B203E0287800F009
:10C3600037F8112007B00CBC90469946F0BD637AAF
:10C37000002BF0D0B847E9E76279002ACDD16B46AF
:10C38000D87900F025F81120ECE7C046DDBF0100A8
:10C39000F0B5EFF3108172B60A4B5A68002A0DD13E
:10C3A00001248025084E5C607459084F3C401C6095
:10C3B00077510270002900D162B6F0BD01230370ED
:10C3C000F8E7C046642C002000E100E0FC06FFBC5A
:10C3D00010B5084B5A68002A0BD0002809D1EFF39A
:10C3E000108272B604491C680C605860002A00D1A3
:10C3F00062B610BD642C002000E100E082B0019024
:10C40000019B002B14D0019B0A48013B019301388A
:10C41000C046C046C046C046C046C046C046C046EC
:10C42000C046C046C046C046F1D1019B002BEAD1B0
:10C4300002B07047E703000010B500280BD1064C8E
:10C440006368002B07D01A6800205B686260984719
:10C450006368002BF7D110BD702B0020F0B50028C9
:10C4600020DBFF271B4B03229C463B1C8408C02675
:10C47000C0B20240D2009340A4006444B600A55963
:10C480009D438B013B409340191C2943A1511F231D
:10C4900018401E3B8340C022181C0E4B520098507F
:10C4A0001860F0BDFF260C4A03249446321C0F236B
:10C4B000C0B20440E400A2400340083B9B089B003C
:10C4C0006344DD6995438A013240A240111C29432F
:10C4D000D961DCE700E100E000ED00E0F0B54446A2
:10C4E0005F4656464D46F0B49C4A87B01368002418
:10C4F000012B00D1AEE09A4B1A68012A00D1B7E0B7
:10C50000984B1A68012A00D1C2E0974B1A68012A99
:10C5100000D1CDE00022954B02921A68012A00D189
:10C52000D8E023070BD0E30700D5DFE0A30700D551
:10C53000EBE0630700D5F6E0230700D502E1002C0D
:10C5400006DB07B03CBC90469946A246AB46F0BD20
:10C55000002301270493C03399460126844D7F426E
:10C5600000230393E023DB0000249846231C403380
:10C57000E95C4BB201332CD0C9B24B46081C98433E
:10C580003B1CC3401E4224D08B0901932B1820333F
:10C590001B785BB29B00EB589C46002B35D0331CBC
:10C5A00083409A46019B032B35D0A023DB059B4695
:10C5B000434682005A44D3580592C0229202134047
:10C5C0001B0C191C53469346029A1A4212D1032996
:10C5D00026D00134042CC9D1039B002BB1D0A22357
:10C5E000A022DB00D205D358029A9A42A9D0049F18
:10C5F0000293B5E70229ECD1019B032B16D06346C9
:10C60000002BE6D00199E047E3E7019B032BE0D143
:10C61000331C83409A465246049B13430493C4E759
:10C62000019B032BEBD180239B029B46434605993C
:10C63000CB589A4652464F4B134042468B508B582C
:10C640005A461A43131C42468B50039B0133DBB2FC
:10C650000393D4E7C1214848890041580B4200D1D7
:10C6600049E73F4B14601A680134012A00D047E7BC
:10C67000C12241499200895802220A4200D13FE773
:10C6800000211960374B14431A68012A00D03CE797
:10C69000C12239499200895804220A4200D134E764
:10C6A00000211960304B14431A68012A00D031E789
:10C6B000C12231499200895808220A4200D129E753
:10C6C0000021144300221960284B02921A68012AA3
:10C6D00000D026E700221A6080231B061C43A022FC
:10C6E000A223D205DB00D35802931AE7A223224AE1
:10C6F000DB00D058D1581E4DC00489032B68C00EF2
:10C70000890F9847A30700D413E71C4B1A4A184D0A
:10C71000D058D158C00489036B68C00E890F984760
:10C72000630700D408E7A323134ADB00D058D1588D
:10C730000F4DC0048903AB68C00E890F98472307CB
:10C7400000D4FCE60C4A0E4B094DD058D158C00419
:10C750008903C00E890FEB689847F0E6006100403E
:10C7600004610040086100400C6100407C610040B1
:10C770007C2B0020FFFFFCFF006000401405000040
:10C780001C05000008B5264B1A68002A05D0C122F6
:10C79000244992008A58D20327D4234B1A68002ACE
:10C7A00005D0C1221F4992008A58920326D41F4BFC
:10C7B0001A68002A05D0C1221A4992008A585203E9
:10C7C00025D41B4B1A68002A05D0C12215499200B6
:10C7D0008A58120300D408BD0022A6201A60154B07
:10C7E000400059681B689847F5E70022A0201A60AE
:10C7F000104B400059681B689847CEE70022A220E2
:10C800001A600C4B400059681B689847CFE700221C
:10C81000A4201A60074B400059681B689847D0E76E
:10C820004081004000800040448100404881004039
:10C830004C810040C42B0020F0B54D4644465F4675
:10C840005646F0B409AC25780AAC2478A4460C7896
:10C85000002C17D11678B046922676008759B34639
:10C86000002F20D0331C243BFF3B845143610B70CD
:10C87000A8450FD00124201C3CBC90469946A246F6
:10C88000AB46F0BD9222002352008350083A8350F9
:10C89000143A835082235B00C258002AEAD0002257
:10C8A0000024C250E7E78E267600B1468659B2468C
:10C8B000002E0BD04E4687515E468659002E23D05F
:10C8C0005B46C750012343610B70D1E784246400A9
:10C8D0000759002FCCD0564606515C460459002C0F
:10C8E00022D111788D42C3D9A324E40004595C54A9
:10C8F00013780133DBB213706A1E93421DD09D4240
:10C90000B6D001230362B3E711788D4205D86346A0
:10C91000002B0FD00123C361ADE7595C094BC15017
:10C92000137801331370A3E701235A4686504361FD
:10C930000B709DE7012343619AE7802302229B004D
:10C94000C250DEE71C050000F0B544465F4656467F
:10C950004D46F0B4822483B00192002264000A5153
:10C9600020340A51083C0A51143C0A51E23C025559
:10C97000033C0255012B16D08022012492008C50DA
:10C9800001220A620A600268002A16D0484B8360BE
:10C99000826800207E33CA5003B03CBC9046994662
:10C9A000A246AB46F0BD8022213C92008C50012271
:10C9B0000A620A600268002AE8D11D32FF329046FE
:10C9C000143A9146043A92259246DE3A23270026ED
:10C9D00093466D000093C25D002A1DD15C46045D44
:10C9E000A4464C59002C2AD142468A58002A2ED0FF
:10C9F00042468C504A59002A4CD15A46009B825CD0
:10CA000093424CD9019CA45C2A4A8C505A465C46FD
:10CA1000825C0132025516E042464E518E504A4623
:10CA20008E5052468A58002AD5D0822300225B00BD
:10CA3000CA50E13BC35C002B2AD00320ACE74A512B
:10CA400001224A61C255009B6345C4D1E9E74C46C7
:10CA50000C59002CF7D04C460A514C59002CEED101
:10CA60005A46009B825C9342EDD9A324E4000C5902
:10CA7000019B9C545B46C25C0132D2B2C254009B03
:10CA80005C1EA2420ED09342DDD001220A62DAE798
:10CA9000002081E701224C514A61C255D3E70122AF
:10CAA0004A61D0E78022022492008C50EDE7C04614
:10CAB000860200001C050000F8B544465F464D465E
:10CAC0005646F0B404798446A0006D4F80460019A4
:10CAD000C0003818203085780820002D05D03CBCD7
:10CAE00090469946A246AB46F8BD002900D1C3E066
:10CAF00040460019C0003A503A1853600023936032
:10CB0000203253711371A0230A685E48C132FF328C
:10CB1000DB059200D0504A68C132FF329200D050FB
:10CB20000120051C0A689540A122D2009D504D6845
:10CB3000A84098500868544DC130FF308000C5505F
:10CB40004868C130FF308000C55004200138C0461D
:10CB5000C046C046C046C046C046C046C046C046A5
:10CB6000C046C046C046F1D1A220C0008246474818
:10CB70000026012583469146524648689A58C2408D
:10CB8000154200D075E02A1C0868824058461A50A9
:10CB900004200138C046C046C046C046C046C04614
:10CBA000C046C046C046C046C046C046F1D12A1C59
:10CBB0000868824048461A5004200138C046C046E2
:10CBC000C046C046C046C046C046C046C046C04635
:10CBD000C046C046F1D10136092ECDD148680123A7
:10CBE0001A1C8240101CA022284DD205505104204E
:10CBF0000138C046C046C046C046C046C046C046D2
:10CC0000C046C046C046C046C046F1D148688340D1
:10CC1000A120C0001350A0220B681A48C133FF3373
:10CC2000D2059B0098504B68C133FF339B0098504E
:10CC30006346A1221B680D68D20048689D50134AC4
:10CC400098508868124A985043461B19DB00FB58DD
:10CC5000002B06D063461868097B000B40B2FFF733
:10CC6000FDFB01234444E4003F192037BB70002042
:10CC700035E7002EB3D1CEE706482101411837E74A
:10CC8000D02B00200C0600000D0600000C05000053
:10CC900024050000ACD70100A0220379016805201B
:10CCA000D20088509A00D318034ADB00D31802221E
:10CCB00020339A707047C046D02B0020F0B54D4607
:10CCC0005F4656464446F0B485B00579930707D0D1
:10CCD000062005B03CBC90469946A246AB46F0BD46
:10CCE0000668C22301209B004042F050AB00581957
:10CCF00098465A4BC0009C466044041C203423795B
:10CD0000A346002B05D0C12382689B00F25011205E
:10CD1000DFE701279308BC469F4308231340277190
:10CD20000393D5D182619146021C0F1C02910C32F3
:10CD30001ACF1AC25946029B9A780A705A68C26181
:10CD40005A789246B1225746D200B7501A78012A33
:10CD500077D0002A4BD14B4664465A091440A4466A
:10CD60003E4A434691465B19DB004B44203302990F
:10CD70005C704A6892468A788221914600229A71B4
:10CD8000DA70012349007250203172500839725014
:10CD900014397250F831725033622632B360815CBC
:10CDA000494528D25346595C2D4BF150835C0133E1
:10CDB00083544346294A5B19DB00D258002A21D00C
:10CDC000264A00209446274A63449A609A68C12301
:10CDD0009B00F2504544214BED005B59002B00D0E5
:10CDE00077E71E4A9446654420352B7171E701238D
:10CDF00001249C46B4E76246002A01D0F361D8E7DB
:10CE00007361D6E7154A203394466344DA1C06332F
:10CE100093461F1C4B4601940093301C59463A1C04
:10CE20005346FFF709FD0028F4D143460B4A5B192E
:10CE30009446DB0063442033DB78002B0BD00330B7
:10CE4000C8E76A46127B029B4A705A68311C9B787D
:10CE5000FFF77AFDBEE70020BCE7C046D02B0020DC
:10CE60001C05000086020000F0B544464D465F46B2
:10CE70005646F0B4B64B2321DA69585C904620221E
:10CE80009C5C01329A5C89B09146002816D126221A
:10CE9000922594469F5CAF4A6D005659AB46002ED2
:10CEA00037D05051012050615854BC420FD009B0C6
:10CEB0003CBC90469946A246AB46F0BD922000216C
:10CEC000A44A4000115008381150143811508222E1
:10CED000A049520088580028E9D00020885023201B
:10CEE000195C002926D11E7BB21E012A58D9191CB3
:10CEF00005AA0C3170C970C2002204A80270242255
:10CF0000002199549A695207D1D459681B689847EF
:10CF1000CDE78E2040001558AA46002D1ED0165091
:10CF20005846105800286FD05846165001205061BE
:10CF30005854BAE7191C05AA0C3170C970C2864949
:10CF4000844C04A8625862500221114203D1520756
:10CF5000D5D50170D3E701220270D0E784204000CC
:10CF60001658002EA1D05546155058461058002886
:10CF70005AD1BC4299D9A3214046C9005158C15544
:10CF800061466046595C0131C9B21954601E814244
:10CF900050D08C4200D188E701216E4A116284E7AB
:10CFA000DA691C69A242A2D15A6901279046DA6166
:10CFB0002022DC7B9C549A6952093A4091462122F6
:10CFC0004D469D54032E3AD08226624A76009151F6
:10CFD00020369151083E9151143E9151E23E9955AF
:10CFE0001954012C50D08021890057500121594AF1
:10CFF00011621160196800294BD0584999609968ED
:10D00000C1239B00D15052E7BC4205D849460029B4
:10D010000DD00121D16162E74146C85D50495050B1
:10D0200061467A1C5A5440E750465D4639E7012173
:10D0300051613AE78021022089005050ACE7454E0B
:10D04000E332B1502032B150083AB150143AB150E5
:10D05000F832B150DB3AFF3A99541954944637628A
:10D06000B760002C26D04246107862463C4970508A
:10D070009F541A68002A24D0384A9A609968C123BC
:10D08000344A9B00D15012E7802102208900505081
:10D09000ACE71F1C26331E1C454623370023009493
:10D0A00001932C48391C321C2B1CFFF7C5FB0028B0
:10D0B000F4D1FCE64A46002A01D0F761D9E777614E
:10D0C000D7E79220013223270026934621494000CA
:10D0D0000394DA5D9446002A2BD10C5826329246EE
:10D0E0009A5C002C2CD18E256D004D59AC46002D3C
:10D0F00038D08E256D004C510D58002D21D1039C48
:10D10000944251D94446A45CA4466546144C0D5142
:10D110005546541C5C55039C9442DAD1822252003D
:10D1200094468A58002AD4D000226146094B5A50AE
:10D13000BDE68E2252000E508E50143A8E50EDE70E
:10D1400064460C505C464C615C46DC55E3E7C046E7
:10D15000D02B002000300040C404000086020000F4
:10D160001C050000842464000D59002DD3D06546B1
:10D170000D510C58002CE3D1039C9442CBD9A3242D
:10D180004546E4000C59AC54544655461C5D0134E8
:10D19000E4B25C55039D013DAC420FD0039DA54216
:10D1A000B9D05C460C62B6E74C46002C03D0012295
:10D1B000054BDA617BE65C464C61ACE780240225D6
:10D1C000A4000D51EDE7C04600300040C12210B56B
:10D1D000604B92009A5884B092054DD55E4A116812
:10D1E000002949D0002111608121C22289009200CA
:10D1F00099505A4B9A7E002A02D10121584A116057
:10D20000022269460A7090215248C9004258425091
:10D2100069460392DA7D68460A72DA6819680192F3
:10D220000022DA751A765B6898474E4A1368002B1D
:10D2300010D04A4B988A997D81424FD900211160C4
:10D240009A8A9968895C9A8A013292B29A82464B8C
:10D25000404AD150454B1A68002A0BD000221A6070
:10D260003E4B9A7E002A02D001213A4A1160DA7DB3
:10D27000002A42D104B010BDC123364A9B00D358C6
:10D280005B07D2D53A490B68002BCED0334BD87D03
:10D2900000283FD10860A321C90052585A7ED97D89
:10D2A0009142C2D11A7E002A41D19A7E002A02D12F
:10D2B00001212B4A11608120C22226498000920060
:10D2C0008850002268460121DA755A7E0170027288
:10D2D000DA68196801925B689847A6E70020106039
:10D2E0000029B7D06A46107011729A68987519684B
:10D2F00001925B6868469847ACE7002268460121C6
:10D30000DA755A7E01700272DA68196801925B68F8
:10D310009847AFE700200860A320C000597E12584C
:10D32000D86842545A7E0132D2B25A76B6E7DA75DC
:10D330001A69D968DA6000226C46587E1A765A76E5
:10D340000132207201912270196868465B68984723
:10D350006BE7C0460020004024210040F82B00204D
:10D36000042000401C2100401C0500004421004016
:10D3700008210040304B1B78012B00D070472F4B09
:10D380001B681B07FAD1F0222D4B1B68134027D1D5
:10D390002C4B1B68134229D0284B1B681B07EDD16F
:10D3A000F022274B1B681340402B32D0244B1A68C5
:10D3B000F0231340A02B01D0D02BDFD1214B1A68D2
:10D3C000F0231A42DAD1204A1368012B04D01F4BF4
:10D3D00013601368012BFCD1C0221D4B1A60CDE7EE
:10D3E000102B0FD1174B1B681342D9D1194A1A4B76
:10D3F0001A608022194B12021A600F4B1B78012B06
:10D40000CAD0BBE7302BCBD10E4B1B681342C7D120
:10D41000ECE70C4B1B681342C8D1C12380220121C9
:10D42000DB00D205D150044B1B78012BA6D1034B56
:10D430001B681B07BAD0A1E7E00F00F0E40F00F073
:10D44000E80F00F0EC0F00F000EC064075930000D0
:10D4500014EC0640DFFF07C004050040186C0040D4
:10D4600052DF704710DF704760DF704761DF704741
:10D4700008B5FEF7CFF908BDF0B54F464646C0B433
:10D480002E4B2F4E1C68984663425C410025B146E6
:10D490002C4F83B0E4B2002D07D0002C22D003B073
:10D4A0000CBC90469946F0BD012401A8FFF7D8FFB7
:10D4B000052832D0002826D0FEF79CF9002CF3D1A5
:10D4C0006A461F4B01A91B8893801E4B1C68201CB9
:10D4D000FFF7CCFF0528E7D000280ED0FEF78AF929
:10D4E0000024D8E73C68338801A9201C0B80FFF793
:10D4F000BDFF0528D3D00028F0D14346201C1B686F
:10D5000098470024C7E70198FEF796FF0E4B1B686B
:10D51000002BD3D001989847D0E7002CBFD14B46C1
:10D520006A461B8801A99380064B01251C68201CB4
:10D53000FFF79CFF0528CFD1B1E7C046202C002083
:10D54000162C0020182C00201C2C002038B5041CA0
:10D550000720002901D08D0700D038BD1248016096
:10D560001249201C0A80124A12491360FFF77AFF01
:10D570000028F2D10122104B1A70C5220F4B9200E5
:10D580009A58520207D50E4A5068002805D18022C9
:10D59000D2031A60E1E70B48DFE780211368C90373
:10D5A0000B4313600020D8E7182C0020162C002015
:10D5B000242C002071D40100142C002000E100E094
:10D5C000642C00200220000008B5094B1B68002BCA
:10D5D00006D09847002800D108BDFEF70BF9FBE7FD
:10D5E000044B1B78002BF7D0FFF746FFF4E7C0464B
:10D5F000242C0020142C002070B5141C051C0E1CBB
:10D60000101C00211422FDF703FE002301222361D8
:10D61000237B22809343237326726572002D01D0F1
:10D620000123A372002070BD0020034B82B0019340
:10D63000019B02B07047C0460028002000B5054B92
:10D6400083B00193019B69460093FFF70DFF03B080
:10D6500000BDC0460028002003210A4802680A4392
:10D660000260094802680A4302600849084A094BF7
:10D670009B1A03DD043BC858D050FBDCFFF77AFE51
:10D68000FDF74EFD2405004054050040C8D70100B9
:10D690000028002094280020FEE7FEE7FEE7FEE7D2
:10D6A000FEE7FEE7002310B5934203D0CC5CC454E0
:10D6B0000133F9E710BD0023C25C0133002AFBD11E
:10D6C000581E7047F8B5C046F8BC08BC9E46704767
:10D6D000F8B5C046F8BC08BC9E4670474300000041
:10D6E000002800200C0000000D0000000000980140
:10D6F000030000006CC0000068073B000CD701006D
:10D7000001D00100802A002001D100007500000036
:10D710006B2000001A0500001C08000089B20100FF
:10D72000000000002CD7010002000000FAD6010022
:10D7300001D00100802A002008D10000F8D60100A5
:10D7400002D0000010D7010002D00000F4D6010082
:10D7500002D0000014D7010002D0000018D7010049
:10D7600002D00000000F0F0002010417FF59001340
:10D77000020210010302010001000000000000008D
:10D780000000C200042B002001020003000000047E
:10D790000000000000000005000000000000000084
:10D7A00000000000000000062C2B002007000000F5
:10D7B0001E000000000098010300000000000000AF
:08D7C00060D9FF7F01000000A9
:10D7C8000000000000000000000000000000000051
:10D7D8000000000000000000000000000000000041
:10D7E800DCD601000000000000000000000000007E
:10D7F8000000000000000000000000000000000021
:10D808000000000000000000000000000000000010
:10D818000000000000000000000000000000000000
:10D8280000000000000000000000000000000000F0
:10D838000030004000000000626C655F637562653F
:10D848005F70726F746F0000E9B00100C1B0010031
:04D8580000000000CC
:040000031000D659BA
:00000001FF
